S01B00004D6F757365466F7248616E64696361707065642E7372656388
S11300000C94B7000C94EF000C94D4000C94D4001E
S11300100C94D4000C94D4000C94D4000C94D4000C
S11300200C94D4000C94D4000C94D4000C94D400FC
S11300300C94D4000C94D4000C94D4000C94D400EC
S11300400C94D4000C94D4000C94D4000C94D400DC
S11300500C94D40038023B02320235023E024102C3
S1130060440207634236B79BD8A71A39685618AEBC
S1130070BAAB558C1D3CB7CC5763BD6DEDFD753ED9
S1130080F6177231BF000000803F08000000BE92E6
S11300902449123EABAAAA2ABECDCCCC4C3E0000C9
S11300A00080BEABAAAAAA3E00000000BF00000068
S11300B0803F0000000000084178D3BB4387D11380
S11300C03D190E3CC3BD4282AD2B3E68EC8276BE28
S11300D0D98FE1A93E4C80EFFFBE01C4FF7F3F00F2
S11300E00000000005010902A1010901A1000509A0
S11300F01901290315002501950375018102950154
S11301007505810305010930093109381581257FF9
S1130110750895038106C0C0090222000101008010
S11301200A09040000010300000009210101000183
S11301302234000705810308006412011001000045
S11301400008C016E8030001010200010C034D0081
S11301506F0075007300650012036F006200640095
S1130160650076002E006100740004030904112464
S11301701FBECFE5D8E0DEBFCDBF10E0A0E6B0E003
S1130180EEE8FBE102C005900D92A037B107D9F764
S113019020E0A0E7B0E001C01D92AC3BB207E1F75C
S11301A00E9493060C94C50D0C940000A82FB92F3F
S11301B080E090E041E050EA609530E009C02D9184
S11301C082279795879510F084279527305EC8F38A
S11301D06F5FA8F30895EADF8D939D930895CF93FD
S11301E0CFB7CF93C395849BE9F7849B09C0849BC5
S11301F007C0849B05C0849B03C0849B01C0A3C02B
S1130200DF93C0919F00DD27CA55DF4F849B02C056
S1130210DF91EBCF2F930F931F9300B32FEF04FBCA
S113022020F94F933F9310B34FEF012704FB21F9BB
S11302303BE031C04E7F012F10B3216028C0102F46
S11302404D7F2260000000B329C04B7F2460012F42
S1130250000010B32BC010B3477F28602AC04F7E24
S113026000B320612CC04F7D10B320622FC04F7BA0
S113027000B3206432C0422700B349934FEF00001B
S1130280102714FB20F910B31471C9F1297F91F2DE
S1130290012704FB21F900B3237F89F2315058F17F
S11302A0102714FB22F910B3277E79F2012704FBEF
S11302B023F92F7C81F200B3102714FB24F92F7942
S11302C071F200C010B3012704FB25F92F7359F212
S11302D000C000B3102714FB26F9223040F200C0FE
S11302E010B3012704FB27F9243028F64F77206840
S11302F010B30000F9CF10E41ABF002719C03B5017
S11303003195C31BD04010E41ABF0881033CF9F0B7
S11303100B34E9F020919D001981110F1213EDCFD8
S11303204A81441F093641F10D3211F0013E29F78B
S11303300093A4003F914F911F910F912F91DF9152
S1130340CAB7C6FD4FCFCF91CFBFCF91189520919B
S1130350A400222379F31091A200112369F534300B
S11303606AF13093A20020939E0010919F003BE01D
S1130370311B30939F0022C00091A2000130E4F4AD
S11303800AE54F7049F430916E0034FD19C00093B2
S11303906E00C6E8D0E018C03091910034FD10C062
S11303A000939100C2E9D0E00FC02795A8F4515002
S11303B0A9F4220F0000F9CF4AE503C042ED01C0C1
S11303C0432FC4E1D0E032E011B31461949A11BB1D
S11303D002B320E414E15F93012756E002BB2795A2
S11303E020F4515021F4220FF9CF012756E00000E8
S11303F03B5A02BBD0F2279528F4515029F4220F1E
S11304000000F9CF012756E0279502BB20F4515094
S113041021F4220FF9CF012756E02991332302BB9F
S113042021F60B7E1091A300110FC651D04002BBE0
S113043011F010939D0010E41ABF006111B31B7EEC
S1130440402F4B7E5F9100C000C002BB11BB42BB7A
S113045071CF90E087309105F8F4FC01E65DFF4F21
S11304600C943C0D0E94720608950E94760608952D
S11304700E947A0608950E947E0608950E948606C8
S113048008950E94820608950E94860681E090E005
S11304900E94B5050E94860608958091600090919F
S11304A061000E948F06813051F48BB361E00E9499
S11304B0ED058BB360E00E94F00581E008958BB3F5
S11304C061E00E94F0058BB360E00E94ED0580E0DE
S11304D00895CF930E944D02813071F480ED97E02E
S11304E00E94B5050E944D02C82F813039F486E779
S11304F090E00E94A20403C0C0E001C0C0E08C2FC1
S1130500CF9108958BB360E00E94E9058BB360E05E
S11305100E94ED058BB361E00E94E9050E9460052D
S11305200E94550680916000909161000E948A06A5
S11305300E9469028130E1F70895853B910514F02A
S113054088569140653B710514F068567140453BEF
S1130550510514F0485651409C01992324F4222754
S11305603327281B390BCB01992324F48827992797
S1130570861B970BBA01552324F466277727641B3F
S1130580750B821793072CF4621773073CF481E010
S113059008956817790724F482E0089583E00895A4
S11305A083E00895CF93DF9300D000D000D0CDB77F
S11305B0DEB780E790E00E94A204809170009091E1
S11305C071002091760030917700821B930B9A83FF
S11305D08983992324F488599E4F9A83898380912F
S11305E07200909173002091780030917900821B01
S11305F0930B9C838B83992324F488599E4F9C836B
S11306008B83809174009091750020917A003091D1
S11306107B00821B930B9E838D83992324F488593A
S11306209E4F9E838D834D815E816B817C81898108
S11306309A810E949D02E82FF0E03197EE0FFF1F90
S113064021E030E02C0F3D1FE20FF31F20813181A8
S11306502B3531056CF42C343105A4F523333105E5
S113066054F52432310504F5243131058CF115C0DB
S1130670263391E039074CF42D3191E03907DCF44D
S11306802E3091E03907F4F423C0253491E0390782
S11306905CF0253591E03907DCF441E050E05093FB
S11306A07D0040937C0014C043E050E050937D00F3
S11306B040937C000DC045E050E050937D00409392
S11306C07C0006C047E050E050937D0040937C00DE
S11306D0245131092134314008F088E08230A1F0FE
S11306E020F4813009F480C0A9C0833009F453C0D8
S11306F0883009F0A3C081E0809364008093630094
S1130700809362008FEFA3C0E82FF0E03197EE0FE3
S1130710FF1F21E030E02C0F3D1FE20FF31F80810B
S113072091819C0124513109203A310568F42091CA
S11307306400222349F01092640081E080936300F6
S11307408093620085E083C09C012D5231402732A2
S1130750310568F420916300222349F081E08093FD
S11307606400109263008093620084E070C0855B33
S113077091098737910508F063C08091620088234E
S113078009F460C0109262001092630081E08093CB
S1130790640086E05CC0E82FF0E03197EE0FFF1FA5
S11307A081E090E08C0F9D1FE80FF91F80819181FB
S11307B09C0124513109203A310548F481E08093A9
S11307C06400809363008093620080E040C0855B96
S11307D091098F399105C0F581E08093640080937D
S11307E063008093620033C0E82FF0E03197EE0F8E
S11307F0FF1F21E030E02C0F3D1FE20FF31F80812B
S113080091819C0124513109203A310548F481E059
S113081080936400809363008093620083E017C038
S1130820855B91098F39910588F481E08093640098
S1130830809363008093620082E009C08FEF07C059
S11308408FEF05C08FEF03C08FEF01C08FEF2696A7
S11308500FB6F894DEBF0FBECDBFDF91CF910895E0
S11308601F93CF93DF93C82F162FD42F0E9488078E
S1130870812F0E94B0078D2F0E94B0078C2F0E94F9
S1130880C607DF91CF911F910895CF93DF93C82FAF
S1130890D62F0E9488078D2F0E94B0078C2F0E94AC
S11308A0C6070E94EE07DF91CF910895EF92FF9261
S11308B00F931F93CF93DF93C82F162FD42F790153
S11308C00E948807812F0E94B0078C2F0E94C607C0
S11308D0C0E008C087010C0F111D0E94EE07F8014B
S11308E08083CF5FCD17B0F3C7018D0F911DEC014D
S11308F00E94FC078883DF91CF911F910F91FF9095
S1130900EF900895CF93C82F65E388E20E944504D1
S1130910C11105C0829586958695837011C0C1303A
S113092021F4807382958F700BC0C23021F48C70D7
S11309308695869505C0C33011F4837001C080E0AC
S1130940CF9108950F931F93CF93DF9300D000D0DE
S113095000D0CDB7DEB78C019E012F5F3F4F46E03C
S11309606AE188E20E9456046A8170E0762F662765
S11309708981682B072E000C880B990B0E947B0A37
S113098020E030E040E85DE30E942B0B0E94430A24
S1130990F801718360836C8170E0762F66278B8108
S11309A0682B072E000C880B990B0E947B0A20E011
S11309B030E040E85DE30E942B0B20E030E044E3AC
S11309C053E40E9460090E94430AF801738362831E
S11309D06E8170E0762F66278D81682B072E000CC0
S11309E0880B990B0E947B0A20E030E040E85DE32D
S11309F00E942B0B20E030E044E353E40E946009A2
S1130A000E94430AF8017583648326960FB6F8940E
S1130A10DEBF0FBECDBFDF91CF911F910F9108951F
S1130A20CF93DF93EC0148816BE588E20E943004A8
S1130A3049816CE588E20E9430044A816DE588E2D0
S1130A400E9430044B816EE588E20E9430044C81A0
S1130A506FE588E20E9430044D8160E688E20E94DE
S1130A603004DF91CF910895CF92DF92EF92FF92FD
S1130A706B017C01462F69E688E20E9430044D2D0B
S1130A8055276AE688E20E943004FF90EF90DF90D9
S1130A90CF90089566E388E20E94450480FF08C071
S1130AA081FF08C082FF08C083FD08C088E0089564
S1130AB085E0089586E0089587E0089589E0089523
S1130AC0CF9340EA56E861E070E084E00E940E07AC
S1130AD060E088E20E944504803A31F060E088E2F8
S1130AE00E944504803AE9F540E06DE388E20E9403
S1130AF0300440E26FE388E20E94300460E088E260
S1130B000E944504803AD1F740E06EE388E20E94F7
S1130B10300440E067E088E20E94300440E06FE384
S1130B2088E20E9430044CE06DE388E20E943004C5
S1130B3085E690E00E9410056DE072E080E090E0B0
S1130B400E9434050E944A05C82F893021F00E9472
S1130B504A05C82F07C083E00E9482048330D9F776
S1130B6001C0C8E08C2FCF9108958F929F92AF92CD
S1130B70BF92CF92DF92EF92FF920F939C01A8EE67
S1130B80B3E00E94420D2BEA3AEA4AEA5AEA0E948A
S1130B90510D00E20E947E0D822E932EA42EB52EBE
S1130BA0B694A7949794879405C081E0881A910815
S1130BB0A108B10881149104A104B104B1F70F9103
S1130BC0FF90EF90DF90CF90BF90AF909F908F9069
S1130BD0089541E00E94A80608950E94E70608953A
S1130BE00E94F406089540917E0050917F001416EF
S1130BF015061CF420E230E002C020EE3FEF240F83
S1130C00351F022E232F000C221F330B000C221F32
S1130C10331F2093830080916B0090916C00820FAE
S1130C20911D90936C0080936B00181619061CF4A8
S1130C3020E230E002C020EE3FEF820F931F082E27
S1130C40892F000C881F990B000C881F991F809313
S1130C508400481B510950937F0040937E000895FF
S1130C60FC01908190769032E1F48181813041F4ED
S1130C7082E890E09093A1008093A00084E008951E
S1130C80823041F481E890E09093A1008093A00029
S1130C9081E008958A3039F483818093810080E073
S1130CA0089580E0089580E008959EE088E10FB6FD
S1130CB0F894A89581BD0FBE91BD0E94520981B3DD
S1130CC0806181BB80E007C0A895E7EBFBE031972A
S1130CD0F1F700C000008150B9F781B38F7E81BB6A
S1130CE0789408958FEF80938300089581E0809332
S1130CF0830008958FEF80938400089581E08093AA
S1130D008400089581E080938200089582E08093B6
S1130D108200089540E0692F0E94A8060895692F73
S1130D200E94020708950E948202A8950E94560814
S1130D308091910084FF07C00E94F30564E082E87B
S1130D4090E00E9451080E94D2020E942902EDCF35
S1130D50413069F4E82FF0E0229181E090E002C094
S1130D60880F991F6A95E2F7822B808308954111B9
S1130D7016C0E82FF0E0DF012E9181E090E002C080
S1130D80880F991F6A95E2F7982F909592239C9368
S1130D9090B7946090BF9081892B808308954230EE
S1130DA0A9F4E82FF0E0DF012E9181E090E002C089
S1130DB0880F991F6A95E2F7982F909592239C9338
S1130DC090B79B7F90BF9081892B80830895E82FF3
S1130DD0F0E0808121E030E002C0220F331F6A95E9
S1130DE0E2F7282B20830895E82FF0E0808121E0AA
S1130DF030E002C0220F331F6A95E2F720952823C2
S1130E0020830895E82FF0E03297808190E002C0BB
S1130E10959587956A95E2F7817008958F929F92D0
S1130E20AF92BF92CF92DF92EF92FF92CF939A014B
S1130E30AB01682F70E080E090E00E941D0D690115
S1130E407A0180E1C81AD108E108F108C701B601A6
S1130E502EEF31E040E050E00E941D0DCA01B901BF
S1130E600E947B0A28E132E741EB5FE30E942B0BEF
S1130E704B015C0120E030E0A9010E94CC098823E9
S1130E80D4F1C0E012C06C2F70E080E090E00E94CA
S1130E90790A9B01AC01C501B4010E94CC09181662
S1130EA01CF0C1B981E004C0CF5FC53060F380E0BD
S1130EB0813019F56C2F70E080E090E00E94790A8F
S1130EC09B01AC0160E070E080E890E40E94980B24
S1130ED09B01AC010E9460094B015C01C701B60192
S1130EE00E947B0AA50194010E94D1090E944A0A2A
S1130EF060B981E003C080E001C080E0CF91FF9041
S1130F00EF90DF90CF90BF90AF909F908F90089517
S1130F1096B7906296BF96B7946096BF96B790685E
S1130F2096BF06B607FEFDCF91B1987F983091F435
S1130F3083B986B7846086BF86B7806886BF06B6E5
S1130F4007FEFDCF81B1887F883131F0803231F4E2
S1130F5082E0089580E0089581E0089583E0089593
S1130F6083B986B7846086BF86B7806886BF06B6B5
S1130F7007FEFDCF81B1887F883221F0803321F4D0
S1130F8081E0089580E0089582E0089596B7946022
S1130F9096BF96B7906896BF96B7906296BF06B60E
S1130FA007FEFDCF91B1987F903191F483B986B754
S1130FB0846086BF86B7806886BF06B607FEFDCF0D
S1130FC081B1887F803431F0883431F482E008952F
S1130FD080E0089581E0089583E0089586B78460F1
S1130FE086BF86B7806886BF86B7806486BF06B62C
S1130FF007FEFDCF83B1089586B7846086BF86B7A8
S1131000806886BF06B607FEFDCF83B10895DC0174
S1131010862F6623E1F0E091A000F091A100909169
S1131020800096FF09C0962F24912C9331969150FD
S113103011969111F9CF07C0962F21912C939150BD
S113104011969111FACFF093A100E093A0000895B6
S11310500F931F93CF93DC01C62F8A01FA0180817D
S113106084FF05C0918188E88927818303C08AE5CC
S1131070FA018083A8014E5F5F4F9C2FFA012C91E7
S113108020839150119631969111F9CF6C2FCA019A
S11310900E94EB00CC5FF801C083CF911F910F91A8
S11310A0089541E950E00E9428080895CF93DF9302
S11310B08091A20083500AF4B7C090919F002CE065
S11310C030E0291B3109E901CA55DF4F90919E0098
S11310D09D3209F0A7C0883009F0A4C083EC809346
S11310E086008AE580936E00109280008881807665
S11310F021F0CE010E9430068CC09A8110928F009C
S11311008981811106C0109290002FE830E082E0BE
S11311107CC0853031F49093A3002FE830E080E068
S113112074C0863009F051C08B81813041F48AE368
S113113091E09093A1008093A00082E142C08230AC
S113114041F488E191E09093A1008093A00082E2B1
S113115038C08330F9F48A81811108C08AE691E0AD
S11311609093A1008093A00084E02BC0813041F4CF
S113117088E591E09093A1008093A00082E121C0D2
S11311808230E1F48CE491E09093A1008093A0007C
S11311908CE017C0813241F48AE291E09093A1007F
S11311A08093A00089E00DC0823251F484EE90E077
S11311B09093A1008093A00084E303C080E001C069
S11311C080E090E49093800024C0883099F08930C6
S11311D031F49093A5002FE830E080E016C08A3007
S11311E069F08B3079F48BE4809392002FE830E03F
S11311F080E00BC025EA30E081E007C02FE830E052
S113120081E003C02FE830E080E03093A100209318
S1131210A0009F81911104C09E81981708F4892F22
S113122080936D001092A20080916E0084FF2BC009
S113123080916D008F3F39F1893010F4682F01C01F
S113124068E0861B80936D00E6E8F0E0908188E812
S11312508927808387E890E00E940708C82F893097
S113126060F4682F87E890E00E94EB00CC5FCC30FC
S113127040F48FEF80936D0004C08FEF80936D0076
S1131280CEE1C0936E0094E104C080B3847139F45C
S113129091509111FACF1092A30010929D00DF910A
S11312A0CF91089585B7826085BF8BB780648BBF6B
S11312B0E1E9F0E08BE481838AE580830895505866
S11312C0BB27AA270E9477090C94F10A0E94E30A1B
S11312D038F00E94EA0A20F039F49F3F19F426F40A
S11312E00C94E00A0EF4E095E7FB0C94DA0AE92F7B
S11312F00E94020B58F3BA17620773078407950715
S113130020F079F4A6F50C94240B0EF4E0950B2E42
S1131310BA2FA02D0B01B90190010C01CA01A00143
S11313201124FF27591B99F0593F50F4503E68F19E
S11313301A16F040A22F232F342F4427585FF3CFDF
S1131340469537952795A795F0405395C9F77EF4B0
S11313501F16BA0B620B730B840BBAF09150A1F0F9
S1131360FF0FBB1F661F771F881FC2F70EC0BA0F7F
S1131370621F731F841F48F4879577956795B79507
S1131380F7959E3F08F0B0CF9395880F08F0992702
S1131390EE0F9795879508950E94B60A08F481E0A8
S11313A008950E94E5090C94F10A0E94EA0A58F093
S11313B00E94E30A40F029F45F3F29F00C94DA0A12
S11313C051110C94250B0C94E00A0E94020B68F353
S11313D09923B1F3552391F3951B550BBB27AA27EA
S11313E062177307840738F09F5F5F4F220F331F24
S11313F0441FAA1FA9F335D00E2E3AF0E0E832D0EC
S113140091505040E695001CCAF72BD0FE2F29D0EE
S1131410660F771F881FBB1F261737074807AB07C0
S1131420B0E809F0BB0B802DBF01FF2793585F4F35
S11314303AF09E3F510578F00C94DA0A0C94250B8F
S11314405F3FE4F3983ED4F3869577956795B79517
S1131450F7959F5FC9F7880F911D9695879597F922
S11314600895E1E0660F771F881FBB1F621773079B
S11314708407BA0720F0621B730B840BBA0BEE1FB0
S113148088F7E09508950E944A0A6894B1110C9473
S1131490250B08950E940A0B88F09F5798F0B92FE6
S11314A09927B751B0F0E1F0660F771F881F991F95
S11314B01AF0BA95C9F714C0B13091F00E94240B08
S11314C0B1E008950C94240B672F782F8827B85F18
S11314D039F0B93FCCF3869577956795B395D9F7ED
S11314E03EF490958095709561957F4F8F4F9F4FF7
S11314F00895E89409C097FB3EF490958095709503
S113150061957F4F8F4F9F4F9923A9F0F92F96E94B
S1131510BB279395F695879577956795B795F111C0
S1131520F8CFFAF4BB0F11F460FF1BC06F5F7F4F5D
S11315308F4F9F4F16C0882311F096E911C077236F
S113154021F09EE8872F762F05C0662371F096E878
S1131550862F70E060E02AF09A95660F771F881F47
S1131560DAF7880F9695879597F90895990F0008EB
S1131570550FAA0BE0E8FEEF16161706E807F90761
S1131580C0F012161306E407F50798F0621B730BFC
S1131590840B950B39F40A2661F0232B242B252B7D
S11315A021F408950A2609F4A140A6958FEF811D20
S11315B0811D089597F99F6780E870E060E00895C1
S11315C09FEF80EC089500240A9416161706180657
S11315D00906089500240A94121613061406050633
S11315E00895092E0394000C11F4882352F0BB0FC4
S11315F040F4BF2B11F460FF04C06F5F7F4F8F4F27
S11316009F4F089557FD9058440F551F59F05F3F61
S113161071F04795880F97FB991F61F09F3F79F010
S113162087950895121613061406551FF2CF469592
S1131630F1DF08C0161617061806991FF1CF869514
S11316407105610508940895E894BB2766277727F8
S1131650CB0197F908950E943E0B0C94F10A0E9465
S1131660E30A38F00E94EA0A20F0952311F00C9462
S1131670DA0A0C94E00A11240C94250B0E94020B44
S113168070F3959FC1F3950F50E0551F629FF001D1
S1131690729FBB27F00DB11D639FAA27F00DB11DEA
S11316A0AA1F649F6627B00DA11D661F829F222773
S11316B0B00DA11D621F739FB00DA11D621F839FFA
S11316C0A00D611D221F749F3327A00D611D231FD0
S11316D0849F600D211D822F762F6A2F11249F571E
S11316E050409AF0F1F088234AF0EE0FFF1FBB1F21
S11316F0661F771F881F91505040A9F79E3F5105E0
S113170080F00C94DA0A0C94250B5F3FE4F3983EC6
S1131710D4F3869577956795B795F795E7959F5F89
S1131720C1F7FE2B880F911D9695879597F908951B
S1131730FA01EE0FFF1F309621053105A1F1611565
S1131740710561F48038BFE39B0749F168949038D0
S1131750810561F08038BFEF9B0741F099234AF57A
S1131760FF3FE1053105210519F1E8940894E79557
S1131770D901AA2329F4AB2FBE2FF85FD0F310C0F0
S1131780FF5F70F4A695E0F7F73950F019F0FF3ACF
S113179038F49F779F930DD00F9007FC90580895CD
S11317A046F00C94E00A60E070E080E89FE308955E
S11317B04FE79F775F934F933F932F930E94930C30
S11317C02F913F914F915F910E942B0B0C94F00B42
S11317D029F416F00C94DA0A0C94240B0C94E00A05
S11317E00E940A0BA8F39638A0F707F80F92E89422
S11317F02BE33AEA48EB5FE70E94410B0F920F920A
S11318000F924DB75EB70F920E94DB0CE2E6F0E058
S11318100E94220C4F915F91EF91FF91E595EE1F8D
S1131820FF1F49F0FE57E0684427EE0F441FFA9566
S1131830E1F74195550B0E94550C0F9007FE0C944F
S1131840490C0895DF93CF931F930F93FF92EF9268
S1131850DF927B018C01689406C0DA2EEF010E94AE
S11318603E0BFE01E894A591259135914591559142
S1131870A6F3EF010E947709FE019701A801DA940B
S113188069F7DF90EF90FF900F911F91CF91DF9157
S113189008959B01AC0160E070E080E89FE30C9444
S11318A0D1090C94DA0A0C940F0D0E940A0BD8F398
S11318B09923C9F3940F511DA3F39150504094F010
S11318C059F0882332F0660F771F881F91505040DB
S11318D0C1F79E3F51052CF7880F911D969587956A
S11318E097F908955F3FACF0983E9CF0BB2786952E
S11318F077956795B79508F4B1609395C1F7BB0FD9
S113190058F711F460FFE8CF6F5F7F4F8F4F9F4F01
S1131910E3CF0C94250B16F00C940F0D0C94E00AF5
S113192068940C94DA0A0E940A0BA8F39923C1F371
S1131930AEF3DF93CF931F930F93FF92C92FDD274D
S113194088232AF02197660F771F881FDAF720E093
S113195030E040E85FEB9FE3883920F0803E38F0C8
S113196021968F770E946009EAE8F0E004C00E94A3
S11319706009E7EBF0E00E94220C8B01BE01EC0150
S1131980FB2E6F5771097595771F880B990B0E9471
S11319907B0A28E132E741E35FE30E943E0BAF2D6F
S11319A09801AE01FF900F911F91CF91DF910E949A
S11319B077090C94F10AFA01DC01AA0FBB1F9B0101
S11319C0AC01BF5728F4222733274427507820C07E
S11319D0B75190F4AB2F0024469537952795011CF9
S11319E0A395D2F3002071F0220F331F441FB39547
S11319F0DAF30ED00C945F0961307105A0E88A0710
S1131A00B94630F49B01AC01662777278827907884
S1131A10309621F0208331834283538308959F3F7E
S1131A2031F0915020F4879577956795B795880F95
S1131A30911D9695879597F90895052E97FB1EF4A9
S1131A4000940E94340D57FD07D00E949A0D07FCA4
S1131A5003D04EF40C94340D509540953095219557
S1131A603F4F4F4F5F4F08959095809570956195C6
S1131A707F4F8F4F9F4F0895EE0FFF1F0590F491F6
S1131A80E02D0994A29FB001B39FC001A39F700DE4
S1131A90811D1124911DB29F700D811D1124911D72
S1131AA00895E894DF93CF93FC01DB010E94420D7B
S1131AB07F936F93E9019A01AC01BF93AF933F9376
S1131AC02F93DF010E94420D26F46C1B7D0B820BC9
S1131AD0930B9E01EB01FC010E94BC0DAF91BF91E1
S1131AE02F913F910E94BC0DBE01CF01F9012F91AE
S1131AF03F91CF91DF91089597FB10F81694000859
S1131B000F93083098F00850232F342F452F562F69
S1131B10672F782F892F902DF4CF0594979587956B
S1131B207795679557954795379527950A95AAF719
S1131B300F910895A1E21A2EAA1BBB1BFD010DC033
S1131B40AA1FBB1FEE1FFF1FA217B307E407F50769
S1131B5020F0A21BB30BE40BF50B661F771F881F45
S1131B60991F1A9469F760957095809590959B01DB
S1131B70AC01BD01CF0108950E94420D460F571FCD
S1111B80C81FD91F08F431960895F894FFCFBA
S1131B8E35000101010000BD004301C001FF5A00F0
S9030000FC
