:100000000C94B0000C94E8000C94CD000C94CD003E
:100010000C94CD000C94CD000C94CD000C94CD002C
:100020000C94CD000C94CD000C94CD000C94CD001C
:100030000C94CD000C94CD000C94CD000C94CD000C
:100040000C94CD000C94CD000C94CD000C94CD00FC
:100050000C94CD0007634236B79BD8A71A3968566F
:1000600018AEBAAB558C1D3CB7CC5763BD6DEDFDDA
:10007000753EF6177231BF000000803F0800000097
:10008000BE922449123EABAAAA2ABECDCCCC4C3E8D
:1000900000000080BEABAAAAAA3E00000000BF007C
:1000A0000000803F0000000000084178D3BB438778
:1000B000D1133D190E3CC3BD4282AD2B3E68EC828C
:1000C00076BED98FE1A93E4C80EFFFBE01C4FF7F11
:1000D0003F000000000005010902A1010901A10083
:1000E00005091901290315002501950375018102F0
:1000F000950175058103050109300931093815811C
:10010000257F750895038106C0C009022200010100
:1001100000800A0904000001030000000921010118
:100120000001223400070581030800641201100158
:1001300000000008C016E8030001010200010C03E2
:100140004D006F0075007300650012036F006200C0
:100150006400650076002E00610074000403090449
:1001600011241FBECFE5D8E0DEBFCDBF10E0A0E672
:10017000B0E0E2E3F7E102C005900D92A636B107C8
:10018000D9F720E0A6E6B0E001C01D92A03BB2077F
:10019000E1F70E94C9040C94970B0C940000A82F5F
:1001A000B92F80E090E041E050EA609530E009C06E
:1001B0002D9182279795879510F084279527305E9B
:1001C000C8F36F5FA8F30895EADF8D939D930895B8
:1001D000CF93CFB7CF93C395849BE9F7849B09C096
:1001E000849B07C0849B05C0849B03C0849B01C083
:1001F000A3C0DF93C0919300DD27C656DF4F849BD9
:1002000002C0DF91EBCF2F930F931F9300B32FEF1B
:1002100004FB20F94F933F9310B34FEF012704FBEA
:1002200021F93BE031C04E7F012F10B3216028C07F
:10023000102F4D7F2260000000B329C04B7F246047
:10024000012F000010B32BC010B3477F28602AC0D5
:100250004F7E00B320612CC04F7D10B320622FC0B1
:100260004F7B00B3206432C0422700B349934FEF65
:100270000000102714FB20F910B31471C9F1297F75
:1002800091F2012704FB21F900B3237F89F2315059
:1002900058F1102714FB22F910B3277E79F20127B9
:1002A00004FB23F92F7C81F200B3102714FB24F9FF
:1002B0002F7971F200C010B3012704FB25F92F73C9
:1002C00059F200C000B3102714FB26F9223040F287
:1002D00000C010B3012704FB27F9243028F64F771C
:1002E000206810B30000F9CF10E41ABF002719C02E
:1002F0003B503195C31BD04010E41ABF0881033C2A
:10030000F9F00B34E9F0209191001981110F1213CB
:10031000EDCF4A81441F093641F10D3211F0013E03
:1003200029F7009398003F914F911F910F912F91C2
:10033000DF91CAB7C6FD4FCFCF91CFBFCF911895F0
:1003400020919800222379F310919600112369F5EA
:1003500034306AF13093960020939200109193000C
:100360003BE0311B3093930022C000919600013096
:10037000E4F40AE54F7049F43091650034FD19C08A
:1003800000936500CAE7D0E018C03091850034FDC5
:1003900010C000938500C6E8D0E00FC02795A8F4F0
:1003A0005150A9F4220F0000F9CF4AE503C042EDF5
:1003B00001C0432FC4E1D0E032E011B31461949A3C
:1003C00011BB02B320E414E15F93012756E002BBA6
:1003D000279520F4515021F4220FF9CF012756E040
:1003E00000003B5A02BBD0F2279528F4515029F463
:1003F000220F0000F9CF012756E0279502BB20F419
:10040000515021F4220FF9CF012756E029913323CF
:1004100002BB21F60B7E10919700110FC651D04000
:1004200002BB11F01093910010E41ABF006111B3E8
:100430001B7E402F4B7E5F9100C000C002BB11BBF2
:1004400042BB71CF8BB360E00E941F048BB360E0AE
:100450000E9423048BB361E00E941F040E94C50325
:100460000E948B0480916000909161000E94C00402
:100470000895823061F028F4882379F0813081F08A
:100480000895843081F030F0853081F008950E9425
:10049000A80408950E94AC0408950E94B004089531
:1004A0000E94B40408950E94BC0408950E94B804F8
:1004B000089580916000909161000E94C504813090
:1004C00051F48BB361E00E9423048BB360E00E947F
:1004D000260481E008958BB361E00E9426048BB36B
:1004E00060E00E94230480E008958FE690E00E947F
:1004F000790308959C01992324F422273327281B8C
:10050000390BCB01992324F488279927861B970B55
:10051000BA01552324F466277727641B750B8217CD
:1005200093072CF4621773073CF481E00895681771
:10053000790724F482E0089583E0089583E0089524
:10054000EF92FF920F931F93CF93DF9389E690E092
:100550000E947903A9E6B0E0ED90FC901197EFE6D8
:10056000F0E080819181E81AF90A1296CD91DC9130
:10057000139782819381C81BD90B14960D911C91FE
:10058000159784819581081B190BA801BE01C7012D
:100590000E947A02823029F0833081F0813019F58F
:1005A00017C08AE0E816F10404F5F194E194F1082B
:1005B0008AE0E816F104DCF48FEF22C0CA30D105DE
:1005C000C4F4D195C195D1092A97ACF48FEF18C026
:1005D0000A30110594F41195019511090A3011059D
:1005E00074F48FEF0DC08FEF0BC085E009C084E07D
:1005F00007C080E005C081E003C083E001C082E065
:10060000DF91CF911F910F91FF90EF9008951F936D
:10061000CF93DF93C82F162FD42F0E94C805812FA8
:100620000E94F0058D2F0E94F0058C2F0E94060677
:10063000DF91CF911F910895CF93DF93C82FD62FCD
:100640000E94C8058D2F0E94F0058C2F0E9406067F
:100650000E942E06DF91CF910895EF92FF920F93A3
:100660001F93CF93DF93C82F162FD42F79010E94A9
:10067000C805812F0E94F0058C2F0E940606C0E05D
:1006800008C087010C0F111D0E942E06F8018083FF
:10069000CF5FCD17B0F3C7018D0F911DEC010E9404
:1006A0003C068883DF91CF911F910F91FF90EF90CF
:1006B0000895CF93C82F65E388E20E941C03C111FF
:1006C00005C0829586958695837011C0C13021F44E
:1006D000807382958F700BC0C23021F48C70869528
:1006E000869505C0C33011F4837001C080E0CF91BE
:1006F00008950F931F93CF93DF9300D000D000D0C5
:10070000CDB7DEB78C019E012F5F3F4F46E06AE117
:1007100088E20E942D038A8190E0982F8827298102
:10072000822BF801918380838C8190E0982F882719
:100730002B81822B938382838E8190E0982F882750
:100740002D81822B9583848326960FB6F894DEBF85
:100750000FBECDBFDF91CF911F910F91089566E33A
:1007600088E20E941C0380FF08C081FF08C082FF4E
:1007700008C083FD08C088E0089585E0089586E0FC
:10078000089587E0089589E00895CF9340EA56E8F8
:1007900061E070E084E00E944E0540E06DE388E295
:1007A0000E94070341E067E088E20E94070348E0F7
:1007B00068E088E20E94070343E26AE088E20E9460
:1007C000070340E06BE088E20E9407034BE069E02A
:1007D00088E20E94070340E067E088E20E94070386
:1007E00041E060E488E20E94070341E06BE388E2B5
:1007F0000E94070340E06EE388E20E9407034CE09A
:100800006DE388E20E9407030E94AF03C82F89307E
:1008100021F00E94AF03C82F0FC080E00E9459034F
:100820008230D8F381E00E9459038230B0F383E034
:100830000E945903823088F38C2FCF91089541E0B4
:100840000E94E80408950E94270508950E94340537
:1008500008954091660050916700141615061CF427
:1008600020E230E002C020EE3FEF240F351F022EC1
:10087000232F000C221F330B000C221F331F209349
:1008800077008091620090916300820F911D909398
:10089000630080936200181619061CF420E230E011
:1008A00002C020EE3FEF820F931F082E892F000C0D
:1008B000881F990B000C881F991F80937800481B94
:1008C000510950936700409366000895FC019081A0
:1008D00090769032E1F48181813041F486E790E0B6
:1008E000909395008093940084E00895823041F4C1
:1008F00085E790E0909395008093940081E00895BF
:100900008A3039F483818093750080E0089580E017
:10091000089580E008959EE088E10FB6F894A895C8
:1009200081BD0FBE91BD0E94920781B3806181BBE2
:1009300080E007C0A895E7EBFBE03197F1F700C036
:1009400000008150B9F781B38F7E81BB7894089500
:100950008FEF80937700089581E08093770008956A
:100960008FEF80937800089581E080937800089558
:1009700081E080937600089582E080937600089568
:1009800040E0692F0E94E8040895692F0E94420503
:1009900008950E942202C1E0A8950E9496068091C7
:1009A000850084FF07C00E94290464E086E790E088
:1009B0000E9491060E945902813071F7C13019F4EA
:1009C0000E947502C0E00E94A0020E943902E4CF9A
:1009D000413069F4E82FF0E0229181E090E002C01C
:1009E000880F991F6A95E2F7822B80830895411141
:1009F00016C0E82FF0E0DF012E9181E090E002C008
:100A0000880F991F6A95E2F7982F909592239C93EF
:100A100090B7946090BF9081892B80830895423075
:100A2000A9F4E82FF0E0DF012E9181E090E002C010
:100A3000880F991F6A95E2F7982F909592239C93BF
:100A400090B79B7F90BF9081892B80830895E82F7A
:100A5000F0E0808121E030E002C0220F331F6A9570
:100A6000E2F7282B20830895E82FF0E0808121E031
:100A700030E002C0220F331F6A95E2F72095282349
:100A800020830895E82FF0E03297808190E002C043
:100A9000959587956A95E2F7817008958F929F9258
:100AA000AF92BF92CF92DF92EF92FF92CF939A01D3
:100AB000AB01682F70E080E090E00E94560B690166
:100AC0007A0180E1C81AD108E108F108C701B6012E
:100AD0002EEF31E040E050E00E94560BCA01B90110
:100AE0000E94B40828E132E741EB5FE30E94640909
:100AF0004B015C0120E030E0A9010E940C08882332
:100B0000D4F1C0E012C06C2F70E080E090E00E9451
:100B1000B2089B01AC01C501B4010E940C08181673
:100B20001CF0C1B981E004C0CF5FC53060F380E044
:100B3000813019F56C2F70E080E090E00E94B208DF
:100B40009B01AC0160E070E080E890E40E94D10974
:100B50009B01AC010E94A0074B015C01C701B601DB
:100B60000E94B408A50194010E9411080E94830804
:100B700060B981E003C080E001C080E0CF91FF90C8
:100B8000EF90DF90CF90BF90AF909F908F9008959F
:100B900096B7906296BF96B7946096BF96B79068E6
:100BA00096BF06B607FEFDCF91B1987F983091F4BD
:100BB00083B986B7846086BF86B7806886BF06B66D
:100BC00007FEFDCF81B1887F883131F0803231F46A
:100BD00082E0089580E0089581E0089583E008951B
:100BE00083B986B7846086BF86B7806886BF06B63D
:100BF00007FEFDCF81B1887F883221F0803321F458
:100C000081E0089580E0089582E0089596B79460A9
:100C100096BF96B7906896BF96B7906296BF06B695
:100C200007FEFDCF91B1987F903191F483B986B7DB
:100C3000846086BF86B7806886BF06B607FEFDCF94
:100C400081B1887F803431F0883431F482E00895B6
:100C500080E0089581E0089583E0089586B7846078
:100C600086BF86B7806886BF86B7806486BF06B6B3
:100C700007FEFDCF83B1089586B7846086BF86B72F
:100C8000806886BF06B607FEFDCF83B10895DC01FC
:100C9000862F6623E1F0E0919400F0919500909109
:100CA000680096FF09C0962F24912C93319691509D
:100CB00011969111F9CF07C0962F21912C93915045
:100CC00011969111FACFF0939500E0939400089556
:100CD0000F931F93CF93DC01C62F8A01FA01808105
:100CE00084FF05C0918188E88927818303C08AE554
:100CF000FA018083A8014E5F5F4F9C2FFA012C916F
:100D000020839150119631969111F9CF6C2FCA0121
:100D10000E94E400CC5FF801C083CF911F910F9136
:100D2000089545E850E00E9468060895CF93DF9348
:100D30008091960083500AF4B7C0909193002CE004
:100D400030E0291B3109E901C656DF4F909192002E
:100D50009D3209F0A7C0883009F0A4C083EC8093CD
:100D60007A008AE580936500109268008881807619
:100D700021F0CE010E9466048CC09A8110928300FB
:100D80008981811106C01092840023E830E082E05E
:100D90007CC0853031F49093970023E830E080E008
:100DA00074C0863009F051C08B81813041F48CE2EF
:100DB00091E0909395008093940082E142C082304C
:100DC00041F48AE091E0909395008093940082E250
:100DD00038C08330F9F48A81811108C08CE591E034
:100DE000909395008093940084E02BC0813041F46F
:100DF0008AE491E0909395008093940082E121C071
:100E00008230E1F48EE391E090939500809394001A
:100E10008CE017C0813241F48CE191E09093950011
:100E20008093940089E00DC0823251F486ED90E009
:100E3000909395008093940084E303C080E001C008
:100E400080E090E49093680024C0883099F0893065
:100E500031F49093990023E830E080E016C08A30A6
:100E600069F08B3079F48BE48093860023E830E0DE
:100E700080E00BC029E930E081E007C023E830E0E2
:100E800081E003C023E830E080E0309395002093B8
:100E900094009F81911104C09E81981708F4892FB6
:100EA00080936400109296008091650084FF2BC0AF
:100EB000809164008F3F39F1893010F4682F01C0B0
:100EC00068E0861B80936400EAE7F0E0908188E8A0
:100ED000892780838BE790E00E944706C82F8930DE
:100EE00060F4682F8BE790E00E94E400CC5FCC3088
:100EF00040F48FEF8093640004C08FEF8093640010
:100F0000CEE1C093650094E104C080B3847139F4EC
:100F100091509111FACF1092970010929100DF91A9
:100F2000CF91089585B7826085BF8BB780648BBFF2
:100F3000E5E8F0E08BE481838AE5808308955058EA
:100F4000BB27AA270E94B7070C942A090E941C09F4
:100F500038F00E94230920F039F49F3F19F426F459
:100F60000C9419090EF4E095E7FB0C941309E92F92
:100F70000E943B0958F3BA17620773078407950765
:100F800020F079F4A6F50C945D090EF4E0950B2E93
:100F9000BA2FA02D0B01B90190010C01CA01A001CB
:100FA0001124FF27591B99F0593F50F4503E68F126
:100FB0001A16F040A22F232F342F4427585FF3CF67
:100FC000469537952795A795F0405395C9F77EF438
:100FD0001F16BA0B620B730B840BBAF09150A1F081
:100FE000FF0FBB1F661F771F881FC2F70EC0BA0F07
:100FF000621F731F841F48F4879577956795B7958F
:10100000F7959E3F08F0B0CF9395880F08F0992789
:10101000EE0F9795879508950E94EF0808F481E0F8
:1010200008950E9425080C942A090E94230958F06B
:101030000E941C0940F029F45F3F29F00C94130929
:1010400051110C945E090C9419090E943B0968F334
:101050009923B1F3552391F3951B550BBB27AA2771
:1010600062177307840738F09F5F5F4F220F331FAB
:10107000441FAA1FA9F335D00E2E3AF0E0E832D073
:1010800091505040E695001CCAF72BD0FE2F29D076
:10109000660F771F881FBB1F261737074807AB0748
:1010A000B0E809F0BB0B802DBF01FF2793585F4FBD
:1010B0003AF09E3F510578F00C9413090C945E09A8
:1010C0005F3FE4F3983ED4F3869577956795B7959F
:1010D000F7959F5FC9F7880F911D9695879597F9AA
:1010E0000895E1E0660F771F881FBB1F6217730723
:1010F0008407BA0720F0621B730B840BBA0BEE1F38
:1011000088F7E09508950E94430988F09F5798F06A
:10111000B92F9927B751B0F0E1F0660F771F881FFC
:10112000991F1AF0BA95C9F714C0B13091F00E9416
:101130005D09B1E008950C945D09672F782F882729
:10114000B85F39F0B93FCCF3869577956795B3953D
:10115000D9F73EF490958095709561957F4F8F4FAC
:101160009F4F0895E89409C097FB3EF490958095B1
:10117000709561957F4F8F4F9F4F9923A9F0F92F5D
:1011800096E9BB279395F695879577956795B795DB
:10119000F111F8CFFAF4BB0F11F460FF1BC06F5FC1
:1011A0007F4F8F4F9F4F16C0882311F096E911C0D3
:1011B000772321F09EE8872F762F05C0662371F0F4
:1011C00096E8862F70E060E02AF09A95660F771F08
:1011D000881FDAF7880F9695879597F90895990FE4
:1011E0000008550FAA0BE0E8FEEF16161706E807F1
:1011F000F907C0F012161306E407F50798F0621B12
:10120000730B840B950B39F40A2661F0232B242BE6
:10121000252B21F408950A2609F4A140A6958FEF05
:10122000811D811D089597F99F6780E870E060E057
:1012300008959FEF80EC089500240A94161617066F
:1012400018060906089500240A94121613061406B7
:1012500005060895092E0394000C11F4882352F01A
:10126000BB0F40F4BF2B11F460FF04C06F5F7F4FD2
:101270008F4F9F4F089557FD9058440F551F59F0B9
:101280005F3F71F04795880F97FB991F61F09F3F73
:1012900079F087950895121613061406551FF2CF9C
:1012A0004695F1DF08C0161617061806991FF1CFEC
:1012B00086957105610508940895E894BB27662713
:1012C0007727CB0197F908950E9477090C942A0992
:1012D0000E941C0938F00E94230920F0952311F088
:1012E0000C9413090C94190911240C945E090E94A2
:1012F0003B0970F3959FC1F3950F50E0551F629F16
:10130000F001729FBB27F00DB11D639FAA27F00D5E
:10131000B11DAA1F649F6627B00DA11D661F829F85
:101320002227B00DA11D621F739FB00DA11D621F6A
:10133000839FA00D611D221F749F3327A00D611D87
:10134000231F849F600D211D822F762F6A2F112469
:101350009F5750409AF0F1F088234AF0EE0FFF1F9C
:10136000BB1F661F771F881F91505040A9F79E3FF3
:10137000510580F00C9413090C945E095F3FE4F36F
:10138000983ED4F3869577956795B795F795E79549
:101390009F5FC1F7FE2B880F911D9695879597F952
:1013A0000895FA01EE0FFF1F309621053105A1F1D6
:1013B0006115710561F48038BFE39B0749F16894BA
:1013C0009038810561F08038BFEF9B0741F0992389
:1013D0004AF5FF3FE1053105210519F1E89408942C
:1013E000E795D901AA2329F4AB2FBE2FF85FD0F3DC
:1013F00010C0FF5F70F4A695E0F7F73950F019F0D0
:10140000FF3A38F49F779F930DD00F9007FC9058C8
:10141000089546F00C94190960E070E080E89FE3BD
:1014200008954FE79F775F934F933F932F930E94C9
:10143000CC0A2F913F914F915F910E9464090C94C7
:10144000290A29F416F00C9413090C945D090C94E4
:1014500019090E944309A8F39638A0F707F80F92DC
:10146000E8942BE33AEA48EB5FE70E947A090F928F
:101470000F920F924DB75EB70F920E94140BE4E5E6
:10148000F0E00E945B0A4F915F91EF91FF91E5952B
:10149000EE1FFF1F49F0FE57E0684427EE0F441F80
:1014A000FA95E1F74195550B0E948E0A0F9007FEC1
:1014B0000C94820A0895DF93CF931F930F93FF92AA
:1014C000EF92DF927B018C01689406C0DA2EEF0167
:1014D0000E947709FE01E894A591259135914591E7
:1014E0005591A6F3EF010E94B707FE019701A801ED
:1014F000DA9469F7DF90EF90FF900F911F91CF91F1
:10150000DF9108959B01AC0160E070E080E89FE30B
:101510000C9411080C9413090C94480B0E94430975
:10152000D8F39923C9F3940F511DA3F39150504060
:1015300094F059F0882332F0660F771F881F91507E
:101540005040C1F79E3F51052CF7880F911D96958D
:10155000879597F908955F3FACF0983E9CF0BB27C4
:10156000869577956795B79508F4B1609395C1F71F
:10157000BB0F58F711F460FFE8CF6F5F7F4F8F4FBD
:101580009F4FE3CF0C945E0916F00C94480B0C941B
:10159000190968940C9413090E944309A8F399232C
:1015A000C1F3AEF3DF93CF931F930F93FF92C92F35
:1015B000DD2788232AF02197660F771F881FDAF727
:1015C00020E030E040E85FEB9FE3883920F0803E88
:1015D00038F021968F770E94A007ECE7F0E004C076
:1015E0000E94A007E9EAF0E00E945B0A8B01BE01BD
:1015F000EC01FB2E6F5771097595771F880B990BBE
:101600000E94B40828E132E741E35FE30E947709D2
:10161000AF2D9801AE01FF900F911F91CF91DF91F7
:101620000E94B7070C942A09FA01DC01AA0FBB1F1C
:101630009B01AC01BF5728F4222733274427507859
:1016400020C0B75190F4AB2F0024469537952795CD
:10165000011CA395D2F3002071F0220F331F441F09
:10166000B395DAF30ED00C949F0761307105A0E8B2
:101670008A07B94630F49B01AC0166277727882793
:101680009078309621F020833183428353830895EC
:101690009F3F31F0915020F4879577956795B795E6
:1016A000880F911D9695879597F90895052E97FBBC
:1016B0001EF400940E946D0B57FD07D00E94750B1D
:1016C00007FC03D04EF40C946D0B5095409530956B
:1016D00021953F4F4F4F5F4F08959095809570959E
:1016E00061957F4F8F4F9F4F0895A1E21A2EAA1B3D
:1016F000BB1BFD010DC0AA1FBB1FEE1FFF1FA217C2
:10170000B307E407F50720F0A21BB30BE40BF50BBE
:10171000661F771F881F991F1A9469F76095709547
:10172000809590959B01AC01BD01CF010895F8947F
:02173000FFCFE9
:061732003500C001FF5A62
:00000001FF
