:100000000C94B7000C94EF000C94D4000C94D40022
:100010000C94D4000C94D4000C94D4000C94D40010
:100020000C94D4000C94D4000C94D4000C94D40000
:100030000C94D4000C94D4000C94D4000C94D400F0
:100040000C94D4000C94D4000C94D4000C94D400E0
:100050000C94D4004F02520249024C02550258023D
:100060005B0207634236B79BD8A71A39685618AEA9
:10007000BAAB558C1D3CB7CC5763BD6DEDFD753EDD
:10008000F6177231BF000000803F08000000BE92EA
:100090002449123EABAAAA2ABECDCCCC4C3E0000CD
:1000A0000080BEABAAAAAA3E00000000BF0000006C
:1000B000803F0000000000084178D3BB4387D11384
:1000C0003D190E3CC3BD4282AD2B3E68EC8276BE2C
:1000D000D98FE1A93E4C80EFFFBE01C4FF7F3F00F6
:1000E0000000000005010902A1010901A1000509A4
:1000F0001901290315002501950375018102950158
:100100007505810305010930093109381581257FFD
:10011000750895038106C0C0090222000101008014
:100120000A09040000010300000009210101000187
:100130002234000705810308006412011001000049
:100140000008C016E8030001010200010C034D0085
:100150006F0075007300650012036F006200640099
:10016000650076002E006100740004030904112468
:100170001FBECFE5D8E0DEBFCDBF10E0A0E6B0E007
:10018000E8E4F9E102C005900D92AA36B107D9F76B
:1001900020E0AAE6B0E001C01D92A43BB207E1F75F
:1001A0000E946D050C94A20C0C940000A82FB92F8E
:1001B00080E090E041E050EA609530E009C02D9188
:1001C00082279795879510F084279527305EC8F38E
:1001D0006F5FA8F30895EADF8D939D930895CF9301
:1001E000CFB7CF93C395849BE9F7849B09C0849BC9
:1001F00007C0849B05C0849B03C0849B01C0A3C02F
:10020000DF93C0919700DD27C256DF4F849B02C069
:10021000DF91EBCF2F930F931F9300B32FEF04FBCE
:1002200020F94F933F9310B34FEF012704FB21F9BF
:100230003BE031C04E7F012F10B3216028C0102F4A
:100240004D7F2260000000B329C04B7F2460012F46
:10025000000010B32BC010B3477F28602AC04F7E28
:1002600000B320612CC04F7D10B320622FC04F7BA4
:1002700000B3206432C0422700B349934FEF00001F
:10028000102714FB20F910B31471C9F1297F91F2E2
:10029000012704FB21F900B3237F89F2315058F183
:1002A000102714FB22F910B3277E79F2012704FBF3
:1002B00023F92F7C81F200B3102714FB24F92F7946
:1002C00071F200C010B3012704FB25F92F7359F216
:1002D00000C000B3102714FB26F9223040F200C002
:1002E00010B3012704FB27F9243028F64F77206844
:1002F00010B30000F9CF10E41ABF002719C03B501B
:100300003195C31BD04010E41ABF0881033CF9F0BB
:100310000B34E9F0209195001981110F1213EDCFE4
:100320004A81441F093641F10D3211F0013E29F78F
:1003300000939C003F914F911F910F912F91DF915E
:10034000CAB7C6FD4FCFCF91CFBFCF91189520919F
:100350009C00222379F310919A00112369F534301F
:100360006AF130939A0020939600109197003BE039
:10037000311B3093970022C000919A000130E4F4C1
:100380000AE54F7049F43091690034FD19C00093BB
:100390006900CEE7D0E018C03091890034FD10C06C
:1003A00000938900CAE8D0E00FC02795A8F4515007
:1003B000A9F4220F0000F9CF4AE503C042ED01C0C5
:1003C000432FC4E1D0E032E011B31461949A11BB21
:1003D00002B320E414E15F93012756E002BB2795A6
:1003E00020F4515021F4220FF9CF012756E00000EC
:1003F0003B5A02BBD0F2279528F4515029F4220F22
:100400000000F9CF012756E0279502BB20F4515098
:1004100021F4220FF9CF012756E02991332302BBA3
:1004200021F60B7E10919B00110FC651D04002BBEC
:1004300011F01093950010E41ABF006111B31B7EF8
:10044000402F4B7E5F9100C000C002BB11BB42BB7E
:1004500071CF8BB360E00E94C3048BB360E00E9455
:10046000C7048BB361E00E94C3040E9435040E945C
:100470002F0580916400909165000E9464050895A5
:1004800090E087309105F8F4FC01E65DFF4F0C9495
:10049000190C0E944C0508950E94500508950E9471
:1004A000540508950E94580508950E946005089516
:1004B0000E945C0508950E945C0581E090E00E9426
:1004C0008F040E945C0508958091640090916500FE
:1004D0000E946905813051F48BB361E00E94C7042A
:1004E0008BB360E00E94CA0481E008958BB361E0A1
:1004F0000E94CA048BB360E00E94C70480E00895A4
:1005000083E790E00E94E90308959C01992324F475
:1005100022273327281B390BCB01992324F4882762
:100520009927861B970BBA01552324F46627772752
:10053000641B750B821793072CF4621773073CF446
:1005400081E008956817790724F482E0089583E034
:10055000089583E00895CF92DF92EF92FF920F9378
:100560001F93CF93DF9300D000D000D0CDB7DEB77C
:1005700080916000909161000E948F048DE690E070
:100580000E94E903ADE6B0E00D911C911197E3E7FD
:10059000F0E080819181081B190B1A830983129660
:1005A000ED90FC90139782819381E81AF90AFC82FE
:1005B000EB821496CD90DC90159784819581C81AB2
:1005C000D90ADE82CD82A601B701C8010E94850248
:1005D000E82FF0E0EE0FFF1F21E030E02C0F3D1F71
:1005E000E20FF31F208131812A303105ACF0253133
:1005F000310524F02432310544F00EC048EE53E0BA
:1006000050936100409360000BC040E951E050936B
:1006100061004093600004C010926100109260007D
:10062000823031F0833001F1813009F046C030C0B2
:100630000A3011055CF080916300882339F0109234
:10064000630029313105DCF585E042C01195019543
:1006500011090A301105ACF180916200882399F1EB
:100660001092620084E034C03AE0E316F1042CF00A
:1006700081E08093630080E02BC0F194E194F10865
:100680008AE0E816F1040CF181E08093630020C059
:100690002AE0C216D1042CF081E08093630083E04D
:1006A00017C0D194C194D1083AE0C316D1047CF0AC
:1006B00081E08093630082E00BC08FEF09C086E089
:1006C00007C08FEF05C08FEF03C08FEF01C08FEF22
:1006D00026960FB6F894DEBF0FBECDBFDF91CF9147
:1006E0001F910F91FF90EF90DF90CF9008951F938F
:1006F000CF93DF93C82F162FD42F0E946C06812F23
:100700000E9494068D2F0E9494068C2F0E94AA06A8
:10071000DF91CF911F910895CF93DF93C82FD62FEC
:100720000E946C068D2F0E9494068C2F0E94AA06B0
:100730000E94D206DF91CF910895EF92FF920F931E
:100740001F93CF93DF93C82F162FD42F79010E94C8
:100750006C06812F0E9494068C2F0E94AA06C0E08E
:1007600008C087010C0F111D0E94D206F80180837A
:10077000CF5FCD17B0F3C7018D0F911DEC010E9423
:10078000E0068883DF91CF911F910F91FF90EF904A
:100790000895CF93C82F65E388E20E948C03C111AE
:1007A00005C0829586958695837011C0C13021F46D
:1007B000807382958F700BC0C23021F48C70869547
:1007C000869505C0C33011F4837001C080E0CF91DD
:1007D00008950F931F93CF93DF9300D000D000D0E4
:1007E000CDB7DEB78C019E012F5F3F4F46E06AE137
:1007F00088E20E949D038A8190E0982F88272981B2
:10080000822BF801918380838C8190E0982F882738
:100810002B81822B938382838E8190E0982F88276F
:100820002D81822B9583848326960FB6F894DEBFA4
:100830000FBECDBFDF91CF911F910F91089566E359
:1008400088E20E948C0380FF08C081FF08C082FFFD
:1008500008C083FD08C088E0089585E0089586E01B
:10086000089587E0089589E00895CF9340EA56E817
:1008700061E070E084E00E94F20540E06DE388E210
:100880000E94770341E067E088E20E94770348E036
:1008900068E088E20E94770343E26AE088E20E940F
:1008A000770340E06BE088E20E9477034BE069E069
:1008B00088E20E94770340E067E088E20E947703C5
:1008C00041E060E488E20E94770341E06BE388E264
:1008D0000E94770340E06EE388E20E9477034CE0D9
:1008E0006DE388E20E9477030E941F04C82F8930BD
:1008F00021F00E941F04C82F0FC080E00E94C9038E
:100900008230D8F381E00E94C9038230B0F383E0E3
:100910000E94C903823088F38C2FCF9108958F9263
:100920009F92AF92BF92CF92DF92EF92FF920F937E
:100930009C01A8EEB3E00E941F0C2BEA3AEA4AEAB7
:100940005AEA0E942E0C00E20E945B0C822E932E2B
:10095000A42EB52EB694A7949794879405C081E0F1
:10096000881A9108A108B10881149104A104B10466
:10097000B1F70F91FF90EF90DF90CF90BF90AF90C5
:100980009F908F90089541E00E948C0508950E94E9
:10099000CB0508950E94D805089540916A005091B2
:1009A0006B00141615061CF420E230E002C020EEA5
:1009B0003FEF240F351F022E232F000C221F330B75
:1009C000000C221F331F20937B00809166009091C2
:1009D0006700820F911D9093670080936600181640
:1009E00019061CF420E230E002C020EE3FEF820F37
:1009F000931F082E892F000C881F990B000C881F4D
:100A0000991F80937C00481B510950936B004093C1
:100A10006A000895FC01908190769032E1F4818122
:100A2000813041F48AE790E0909399008093980098
:100A300084E00895823041F489E790E09093990032
:100A40008093980081E008958A3039F483818093FF
:100A5000790080E0089580E0089580E008959EE0A8
:100A600088E10FB6F894A89581BD0FBE91BD0E9494
:100A7000360881B3806181BB80E007C0A895E7EBB1
:100A8000FBE03197F1F700C000008150B9F781B366
:100A90008F7E81BB789408958FEF80937B000895BB
:100AA00081E080937B0008958FEF80937C00089510
:100AB00081E080937C00089581E080937A0008951E
:100AC00082E080937A00089540E0692F0E948C05AF
:100AD0000895692F0E94E60508950E942902C1E049
:100AE000A8950E943A078091890084FF07C00E9460
:100AF000CD0464E08AE790E00E9435070E9464021A
:100B0000813071F7C13019F40E948002C0E00E9468
:100B1000AB020E944002E4CF413069F4E82FF0E0DC
:100B2000229181E090E002C0880F991F6A95E2F758
:100B3000822B80830895411116C0E82FF0E0DF0179
:100B40002E9181E090E002C0880F991F6A95E2F72C
:100B5000982F909592239C9390B7946090BF90812A
:100B6000892B808308954230A9F4E82FF0E0DF015B
:100B70002E9181E090E002C0880F991F6A95E2F7FC
:100B8000982F909592239C9390B79B7F90BF9081D4
:100B9000892B80830895E82FF0E0808121E030E008
:100BA00002C0220F331F6A95E2F7282B2083089595
:100BB000E82FF0E0808121E030E002C0220F331FF7
:100BC0006A95E2F72095282320830895E82FF0E026
:100BD0003297808190E002C0959587956A95E2F7FB
:100BE000817008958F929F92AF92BF92CF92DF92C1
:100BF000EF92FF92CF939A01AB01682F70E080E0F3
:100C000090E00E94FA0B69017A0180E1C81AD108CC
:100C1000E108F108C701B6012EEF31E040E050E0F5
:100C20000E94FA0BCA01B9010E94580928E132E773
:100C300041EB5FE30E94080A4B015C0120E030E0D9
:100C4000A9010E94B0088823D4F1C0E012C06C2F23
:100C500070E080E090E00E9456099B01AC01C50164
:100C6000B4010E94B00818161CF0C1B981E004C09C
:100C7000CF5FC53060F380E0813019F56C2F70E0F4
:100C800080E090E00E9456099B01AC0160E070E0BA
:100C900080E890E40E94750A9B01AC010E94440820
:100CA0004B015C01C701B6010E945809A5019401DE
:100CB0000E94B5080E94270960B981E003C080E066
:100CC00001C080E0CF91FF90EF90DF90CF90BF9078
:100CD000AF909F908F90089596B7906296BF96B709
:100CE000946096BF96B7906896BF06B607FEFDCF94
:100CF00091B1987F983091F483B986B7846086BFAC
:100D000086B7806886BF06B607FEFDCF81B1887FB3
:100D1000883131F0803231F482E0089580E0089526
:100D200081E0089583E0089583B986B7846086BF23
:100D300086B7806886BF06B607FEFDCF81B1887F83
:100D4000883221F0803321F481E0089580E0089515
:100D500082E0089596B7946096BF96B7906896BF64
:100D600096B7906296BF06B607FEFDCF91B1987F09
:100D7000903191F483B986B7846086BF86B7806866
:100D800086BF06B607FEFDCF81B1887F803431F083
:100D9000883431F482E0089580E0089581E0089578
:100DA00083E0089586B7846086BF86B7806886BF73
:100DB00086B7806486BF06B607FEFDCF83B108956F
:100DC00086B7846086BF86B7806886BF06B607FE92
:100DD000FDCF83B10895DC01862F6623E1F0E09119
:100DE0009800F091990090916C0096FF09C0962FA1
:100DF00024912C933196915011969111F9CF07C0FF
:100E0000962F21912C93915011969111FACFF09336
:100E10009900E093980008950F931F93CF93DC01FE
:100E2000C62F8A01FA01808184FF05C0918188E87C
:100E30008927818303C08AE5FA018083A8014E5F78
:100E40005F4F9C2FFA012C9120839150119631967F
:100E50009111F9CF6C2FCA010E94EB00CC5FF80111
:100E6000C083CF911F910F91089549E850E00E94EF
:100E70000C070895CF93DF9380919A0083500AF472
:100E8000B7C0909197002CE030E0291B3109E901AF
:100E9000C256DF4F909196009D3209F0A7C088306E
:100EA00009F0A4C083EC80937E008AE580936900FA
:100EB00010926C008881807621F0CE010E940A0594
:100EC0008CC09A81109287008981811106C010928E
:100ED000880027E830E082E07CC0853031F49093D0
:100EE0009B0027E830E080E074C0863009F051C0F4
:100EF0008B81813041F48AE391E090939900809353
:100F0000980082E142C0823041F488E191E0909300
:100F100099008093980082E238C08330F9F48A8186
:100F2000811108C08AE691E090939900809398001F
:100F300084E02BC0813041F488E591E090939900E2
:100F40008093980082E121C08230E1F48CE491E04A
:100F500090939900809398008CE017C0813241F4FF
:100F60008AE291E0909399008093980089E00DC007
:100F7000823251F484EE90E090939900809398002F
:100F800084E303C080E001C080E090E490936C00B3
:100F900024C0883099F0893031F490939D0027E87F
:100FA00030E080E016C08A3069F08B3079F48BE451
:100FB00080938A0027E830E080E00BC02DE930E024
:100FC00081E007C027E830E081E003C027E830E097
:100FD00080E030939900209398009F81911104C084
:100FE0009E81981708F4892F8093680010929A00C8
:100FF0008091690084FF2BC0809168008F3F39F198
:10100000893010F4682F01C068E0861B8093680067
:10101000EEE7F0E0908188E8892780838FE790E011
:101020000E94EB06C82F893060F4682F8FE790E0AC
:101030000E94EB00CC5FCC3040F48FEF80936800CF
:1010400004C08FEF80936800CEE1C093690094E103
:1010500004C080B3847139F491509111FACF109289
:101060009B0010929500DF91CF91089585B7826023
:1010700085BF8BB780648BBFE9E8F0E08BE48183A8
:101080008AE5808308955058BB27AA270E945B08F1
:101090000C94CE090E94C00938F00E94C70920F0C4
:1010A00039F49F3F19F426F40C94BD090EF4E09531
:1010B000E7FB0C94B709E92F0E94DF0958F3BA1730
:1010C000620773078407950720F079F4A6F50C945E
:1010D000010A0EF4E0950B2EBA2FA02D0B01B901D9
:1010E00090010C01CA01A0011124FF27591B99F09E
:1010F000593F50F4503E68F11A16F040A22F232FAA
:10110000342F4427585FF3CF469537952795A795F9
:10111000F0405395C9F77EF41F16BA0B620B730BA0
:10112000840BBAF09150A1F0FF0FBB1F661F771F11
:10113000881FC2F70EC0BA0F621F731F841F48F4C6
:10114000879577956795B795F7959E3F08F0B0CF4F
:101150009395880F08F09927EE0F97958795089536
:101160000E94930908F481E008950E94C9080C9434
:10117000CE090E94C70958F00E94C00940F029F426
:101180005F3F29F00C94B70951110C94020A0C949A
:10119000BD090E94DF0968F39923B1F3552391F348
:1011A000951B550BBB27AA2762177307840738F0D6
:1011B0009F5F5F4F220F331F441FAA1FA9F335D033
:1011C0000E2E3AF0E0E832D091505040E695001CE7
:1011D000CAF72BD0FE2F29D0660F771F881FBB1FA1
:1011E000261737074807AB07B0E809F0BB0B802D7F
:1011F000BF01FF2793585F4F3AF09E3F510578F0AB
:101200000C94B7090C94020A5F3FE4F3983ED4F3C0
:10121000869577956795B795F7959F5FC9F7880F7E
:10122000911D9695879597F90895E1E0660F771FD0
:10123000881FBB1F621773078407BA0720F0621B61
:10124000730B840BBA0BEE1F88F7E09508950E948C
:10125000E70988F09F5798F0B92F9927B751B0F058
:10126000E1F0660F771F881F991F1AF0BA95C9F72A
:1012700014C0B13091F00E94010AB1E008950C94BD
:10128000010A672F782F8827B85F39F0B93FCCF370
:10129000869577956795B395D9F73EF490958095A7
:1012A000709561957F4F8F4F9F4F0895E89409C0C7
:1012B00097FB3EF490958095709561957F4F8F4F89
:1012C0009F4F9923A9F0F92F96E9BB279395F6959F
:1012D000879577956795B795F111F8CFFAF4BB0F1D
:1012E00011F460FF1BC06F5F7F4F8F4F9F4F16C081
:1012F000882311F096E911C0772321F09EE8872F0B
:10130000762F05C0662371F096E8862F70E060E0C6
:101310002AF09A95660F771F881FDAF7880F96953F
:10132000879597F90895990F0008550FAA0BE0E8E3
:10133000FEEF16161706E807F907C0F01216130697
:10134000E407F50798F0621B730B840B950B39F4D7
:101350000A2661F0232B242B252B21F408950A263D
:1013600009F4A140A6958FEF811D811D089597F97D
:101370009F6780E870E060E008959FEF80EC08953B
:1013800000240A9416161706180609060895002464
:101390000A9412161306140605060895092E0394DE
:1013A000000C11F4882352F0BB0F40F4BF2B11F452
:1013B00060FF04C06F5F7F4F8F4F9F4F089557FDB1
:1013C0009058440F551F59F05F3F71F04795880FB3
:1013D00097FB991F61F09F3F79F08795089512164A
:1013E00013061406551FF2CF4695F1DF08C01616F6
:1013F00017061806991FF1CF8695710561050894A7
:101400000895E894BB2766277727CB0197F90895BD
:101410000E941B0A0C94CE090E94C00938F00E9459
:10142000C70920F0952311F00C94B7090C94BD095D
:1014300011240C94020A0E94DF0970F3959FC1F3F6
:10144000950F50E0551F629FF001729FBB27F00D72
:10145000B11D639FAA27F00DB11DAA1F649F6627C7
:10146000B00DA11D661F829F2227B00DA11D621F16
:10147000739FB00DA11D621F839FA00D611D221FD0
:10148000749F3327A00D611D231F849F600D211DB4
:10149000822F762F6A2F11249F5750409AF0F1F037
:1014A00088234AF0EE0FFF1FBB1F661F771F881FA0
:1014B00091505040A9F79E3F510580F00C94B70918
:1014C0000C94020A5F3FE4F3983ED4F38695779537
:1014D0006795B795F795E7959F5FC1F7FE2B880F46
:1014E000911D9695879597F90895FA01EE0FFF1FC4
:1014F000309621053105A1F16115710561F480383F
:10150000BFE39B0749F168949038810561F080380A
:10151000BFEF9B0741F099234AF5FF3FE1053105F5
:10152000210519F1E8940894E795D901AA2329F433
:10153000AB2FBE2FF85FD0F310C0FF5F70F4A695FD
:10154000E0F7F73950F019F0FF3A38F49F779F939E
:101550000DD00F9007FC9058089546F00C94BD09EB
:1015600060E070E080E89FE308954FE79F775F9326
:101570004F933F932F930E94700B2F913F914F9168
:101580005F910E94080A0C94CD0A29F416F00C947D
:10159000B7090C94010A0C94BD090E94E709A8F34D
:1015A0009638A0F707F80F92E8942BE33AEA48EB55
:1015B0005FE70E941E0A0F920F920F924DB75EB71F
:1015C0000F920E94B80BE2E6F0E00E94FF0A4F91F2
:1015D0005F91EF91FF91E595EE1FFF1F49F0FE57D8
:1015E000E0684427EE0F441FFA95E1F74195550B4B
:1015F0000E94320B0F9007FE0C94260B0895DF9388
:10160000CF931F930F93FF92EF92DF927B018C0198
:10161000689406C0DA2EEF010E941B0AFE01E894CE
:10162000A5912591359145915591A6F3EF010E9421
:101630005B08FE019701A801DA9469F7DF90EF904B
:10164000FF900F911F91CF91DF9108959B01AC0105
:1016500060E070E080E89FE30C94B5080C94B70953
:101660000C94EC0B0E94E709D8F39923C9F3940F6B
:10167000511DA3F39150504094F059F0882332F05B
:10168000660F771F881F91505040C1F79E3F51054C
:101690002CF7880F911D9695879597F908955F3FD0
:1016A000ACF0983E9CF0BB27869577956795B795EB
:1016B00008F4B1609395C1F7BB0F58F711F460FFC0
:1016C000E8CF6F5F7F4F8F4F9F4FE3CF0C94020A9D
:1016D00016F00C94EC0B0C94BD0968940C94B709AB
:1016E0000E94E709A8F39923C1F3AEF3DF93CF93E8
:1016F0001F930F93FF92C92FDD2788232AF021978C
:10170000660F771F881FDAF720E030E040E85FEBD4
:101710009FE3883920F0803E38F021968F770E9431
:101720004408EAE8F0E004C00E944408E7EBF0E077
:101730000E94FF0A8B01BE01EC01FB2E6F5771095D
:101740007595771F880B990B0E94580928E132E79D
:1017500041E35FE30E941B0AAF2D9801AE01FF90A9
:101760000F911F91CF91DF910E945B080C94CE09DD
:10177000FA01DC01AA0FBB1F9B01AC01BF5728F483
:10178000222733274427507820C0B75190F4AB2F3D
:101790000024469537952795011CA395D2F3002088
:1017A00071F0220F331F441FB395DAF30ED00C945F
:1017B000430861307105A0E88A07B94630F49B01FF
:1017C000AC016627772788279078309621F0208310
:1017D00031834283538308959F3F31F0915020F429
:1017E000879577956795B795880F911D96958795FD
:1017F00097F90895052E97FB1EF400940E94110C92
:1018000057FD07D00E94770C07FC03D04EF40C94D0
:10181000110C50954095309521953F4F4F4F5F4F9C
:10182000089590958095709561957F4F8F4F9F4F4C
:101830000895EE0FFF1F0590F491E02D0994A29FEB
:10184000B001B39FC001A39F700D811D1124911D94
:10185000B29F700D811D1124911D0895E894DF93AE
:10186000CF93FC01DB010E941F0C7F936F93E90172
:101870009A01AC01BF93AF933F932F93DF010E9476
:101880001F0C26F46C1B7D0B820B930B9E01EB014E
:10189000FC010E94990CAF91BF912F913F910E9442
:1018A000990CBE01CF01F9012F913F91CF91DF91AA
:1018B000089597FB10F8169400080F93083098F0DD
:1018C0000850232F342F452F562F672F782F892F1D
:1018D000902DF4CF059497958795779567955795B3
:1018E0004795379527950A95AAF70F910895A1E294
:1018F0001A2EAA1BBB1BFD010DC0AA1FBB1FEE1F8A
:10190000FF1FA217B307E407F50720F0A21BB30BD4
:10191000E40BF50B661F771F881F991F1A9469F750
:1019200060957095809590959B01AC01BD01CF01AC
:1019300008950E941F0C460F571FC81FD91F08F497
:0819400031960895F894FFCFE1
:0A194800E80301013500C001FF5A59
:00000001FF
