:100000000C94B0000C94E8000C94CD000C94CD003E
:100010000C94CD000C94CD000C94CD000C94CD002C
:100020000C94CD000C94CD000C94CD000C94CD001C
:100030000C94CD000C94CD000C94CD000C94CD000C
:100040000C94CD000C94CD000C94CD000C94CD00FC
:100050000C94CD0007634236B79BD8A71A3968566F
:1000600018AEBAAB558C1D3CB7CC5763BD6DEDFDDA
:10007000753EF6177231BF000000803F0800000097
:10008000BE922449123EABAAAA2ABECDCCCC4C3E8D
:1000900000000080BEABAAAAAA3E00000000BF007C
:1000A0000000803F0000000000084178D3BB438778
:1000B000D1133D190E3CC3BD4282AD2B3E68EC828C
:1000C00076BED98FE1A93E4C80EFFFBE01C4FF7F11
:1000D0003F000000000005010902A1010901A10083
:1000E00005091901290315002501950375018102F0
:1000F000950175058103050109300931093815811C
:10010000257F750895038106C0C009022200010100
:1001100000800A0904000001030000000921010118
:100120000001223400070581030800641201100158
:1001300000000008C016E8030001010200010C03E2
:100140004D006F0075007300650012036F006200C0
:100150006400650076002E00610074000403090449
:1001600011241FBECFE5D8E0DEBFCDBF10E0A0E672
:10017000B0E0ECEFF8E102C005900D92A836B107AF
:10018000D9F720E0A8E6B0E001C01D92A23BB2077B
:10019000E1F70E944D050C947C0C0C940000A82FF4
:1001A000B92F80E090E041E050EA609530E009C06E
:1001B0002D9182279795879510F084279527305E9B
:1001C000C8F36F5FA8F30895EADF8D939D930895B8
:1001D000CF93CFB7CF93C395849BE9F7849B09C096
:1001E000849B07C0849B05C0849B03C0849B01C083
:1001F000A3C0DF93C0919500DD27C456DF4F849BD9
:1002000002C0DF91EBCF2F930F931F9300B32FEF1B
:1002100004FB20F94F933F9310B34FEF012704FBEA
:1002200021F93BE031C04E7F012F10B3216028C07F
:10023000102F4D7F2260000000B329C04B7F246047
:10024000012F000010B32BC010B3477F28602AC0D5
:100250004F7E00B320612CC04F7D10B320622FC0B1
:100260004F7B00B3206432C0422700B349934FEF65
:100270000000102714FB20F910B31471C9F1297F75
:1002800091F2012704FB21F900B3237F89F2315059
:1002900058F1102714FB22F910B3277E79F20127B9
:1002A00004FB23F92F7C81F200B3102714FB24F9FF
:1002B0002F7971F200C010B3012704FB25F92F73C9
:1002C00059F200C000B3102714FB26F9223040F287
:1002D00000C010B3012704FB27F9243028F64F771C
:1002E000206810B30000F9CF10E41ABF002719C02E
:1002F0003B503195C31BD04010E41ABF0881033C2A
:10030000F9F00B34E9F0209193001981110F1213C9
:10031000EDCF4A81441F093641F10D3211F0013E03
:1003200029F700939A003F914F911F910F912F91C0
:10033000DF91CAB7C6FD4FCFCF91CFBFCF911895F0
:1003400020919A00222379F310919800112369F5E6
:1003500034306AF130939800209394001091950006
:100360003BE0311B3093950022C000919800013092
:10037000E4F40AE54F7049F43091670034FD19C088
:1003800000936700CCE7D0E018C03091870034FDBF
:1003900010C000938700C8E8D0E00FC02795A8F4EC
:1003A0005150A9F4220F0000F9CF4AE503C042EDF5
:1003B00001C0432FC4E1D0E032E011B31461949A3C
:1003C00011BB02B320E414E15F93012756E002BBA6
:1003D000279520F4515021F4220FF9CF012756E040
:1003E00000003B5A02BBD0F2279528F4515029F463
:1003F000220F0000F9CF012756E0279502BB20F419
:10040000515021F4220FF9CF012756E029913323CF
:1004100002BB21F60B7E10919900110FC651D040FE
:1004200002BB11F01093930010E41ABF006111B3E6
:100430001B7E402F4B7E5F9100C000C002BB11BBF2
:1004400042BB71CF8BB360E00E94A3048BB360E02A
:100450000E94A7048BB361E00E94A3040E941504CC
:100460000E940F0580916200909163000E944405F4
:100470000895823061F028F4882379F0813081F08A
:100480000895843081F030F0853081F008950E9425
:100490002C0508950E94300508950E9434050895A2
:1004A0000E94380508950E94400508950E943C0569
:1004B000089580916200909163000E944905813007
:1004C00051F48BB361E00E94A7048BB360E00E94FB
:1004D000AA0481E008958BB361E00E94AA048BB363
:1004E00060E00E94A70480E0089581E790E00E9408
:1004F000C90308959C01992324F422273327281B3C
:10050000390BCB01992324F488279927861B970B55
:10051000BA01552324F466277727641B750B8217CD
:1005200093072CF4621773073CF481E00895681771
:10053000790724F482E0089583E0089583E0089524
:10054000CF92DF92EF92FF920F931F93CF93DF939F
:1005500000D000D000D0CDB7DEB780916000909180
:1005600061000E946F048BE690E00E94C903ABE635
:10057000B0E0CD90DC901197E1E7F0E080819181CF
:10058000C81AD90ADA82C98212960D911C91139762
:1005900082819381081B190B1C830B831496ED90A9
:1005A000FC90159784819581E81AF90AFE82ED8204
:1005B000A701B801C6010E947A02E82FF0E0EE0F11
:1005C000FF1F21E030E02C0F3D1FE20FF31F2081C1
:1005D00031812932310534F42031310574F433236B
:1005E0002CF419C02D3331057CF015C028EE33E012
:1005F000309361002093600012C020E931E0309315
:100600006100209360000BC028EC30E03093610063
:100610002093600004C0109261001092600082304C
:1006200029F0833081F0813031F518C03AE0C316EB
:10063000D1041CF5D194C194D1088AE0C816D10424
:10064000F4F48FEF25C00A301105DCF41195019503
:1006500011090A301105BCF48FEF1AC02AE0E21626
:10066000F1049CF4F194E194F1083AE0E316F1040A
:1006700074F48FEF0DC08FEF0BC085E009C084E0EC
:1006800007C080E005C081E003C083E001C082E0D4
:1006900026960FB6F894DEBF0FBECDBFDF91CF9187
:1006A0001F910F91FF90EF90DF90CF9008951F93CF
:1006B000CF93DF93C82F162FD42F0E944C06812F83
:1006C0000E9474068D2F0E9474068C2F0E948A0649
:1006D000DF91CF911F910895CF93DF93C82FD62F2D
:1006E0000E944C068D2F0E9474068C2F0E948A0651
:1006F0000E94B206DF91CF910895EF92FF920F937F
:100700001F93CF93DF93C82F162FD42F79010E9408
:100710004C06812F0E9474068C2F0E948A06C0E02E
:1007200008C087010C0F111D0E94B206F8018083DA
:10073000CF5FCD17B0F3C7018D0F911DEC010E9463
:10074000C0068883DF91CF911F910F91FF90EF90AA
:100750000895CF93C82F65E388E20E946C03C1110E
:1007600005C0829586958695837011C0C13021F4AD
:10077000807382958F700BC0C23021F48C70869587
:10078000869505C0C33011F4837001C080E0CF911D
:1007900008950F931F93CF93DF9300D000D000D024
:1007A000CDB7DEB78C019E012F5F3F4F46E06AE177
:1007B00088E20E947D038A8190E0982F8827298112
:1007C000822BF801918380838C8190E0982F882779
:1007D0002B81822B938382838E8190E0982F8827B0
:1007E0002D81822B9583848326960FB6F894DEBFE5
:1007F0000FBECDBFDF91CF911F910F91089566E39A
:1008000088E20E946C0380FF08C081FF08C082FF5D
:1008100008C083FD08C088E0089585E0089586E05B
:10082000089587E0089589E00895CF9340EA56E857
:1008300061E070E084E00E94D20540E06DE388E270
:100840000E94570341E067E088E20E94570348E0B6
:1008500068E088E20E94570343E26AE088E20E946F
:10086000570340E06BE088E20E9457034BE069E0E9
:1008700088E20E94570340E067E088E20E94570345
:1008800041E060E488E20E94570341E06BE388E2C4
:100890000E94570340E06EE388E20E9457034CE059
:1008A0006DE388E20E9457030E94FF03C82F89303E
:1008B00021F00E94FF03C82F0FC080E00E94A9030F
:1008C0008230D8F381E00E94A9038230B0F383E044
:1008D0000E94A903823088F38C2FCF9108958F92C4
:1008E0009F92AF92BF92CF92DF92EF92FF920F93BF
:1008F0009C01A8EEB3E00E94F90B2BEA3AEA4AEA1F
:100900005AEA0E94080C00E20E94350C822E932EB7
:10091000A42EB52EB694A7949794879405C081E031
:10092000881A9108A108B10881149104A104B104A6
:10093000B1F70F91FF90EF90DF90CF90BF90AF9005
:100940009F908F90089541E00E946C0508950E9449
:10095000AB0508950E94B805089540916800509134
:100960006900141615061CF420E230E002C020EEE7
:100970003FEF240F351F022E232F000C221F330BB5
:10098000000C221F331F2093790080916400909106
:100990006500820F911D9093650080936400181686
:1009A00019061CF420E230E002C020EE3FEF820F77
:1009B000931F082E892F000C881F990B000C881F8D
:1009C000991F80937A00481B510950936900409306
:1009D00068000895FC01908190769032E1F4818165
:1009E000813041F488E790E09093970080939600DF
:1009F00084E00895823041F487E790E09093970077
:100A00008093960081E008958A3039F48381809341
:100A1000770080E0089580E0089580E008959EE0EA
:100A200088E10FB6F894A89581BD0FBE91BD0E94D4
:100A3000160881B3806181BB80E007C0A895E7EB11
:100A4000FBE03197F1F700C000008150B9F781B3A6
:100A50008F7E81BB789408958FEF809379000895FD
:100A600081E08093790008958FEF80937A00089554
:100A700081E080937A00089581E080937800089562
:100A800082E080937800089540E0692F0E946C0511
:100A90000895692F0E94C60508950E942202C1E0B0
:100AA000A8950E941A078091870084FF07C00E94C2
:100AB000AD0464E088E790E00E9415070E945902A7
:100AC000813071F7C13019F40E947502C0E00E94B4
:100AD000A0020E943902E4CF413069F4E82FF0E02F
:100AE000229181E090E002C0880F991F6A95E2F799
:100AF000822B80830895411116C0E82FF0E0DF01BA
:100B00002E9181E090E002C0880F991F6A95E2F76C
:100B1000982F909592239C9390B7946090BF90816A
:100B2000892B808308954230A9F4E82FF0E0DF019B
:100B30002E9181E090E002C0880F991F6A95E2F73C
:100B4000982F909592239C9390B79B7F90BF908114
:100B5000892B80830895E82FF0E0808121E030E048
:100B600002C0220F331F6A95E2F7282B20830895D5
:100B7000E82FF0E0808121E030E002C0220F331F37
:100B80006A95E2F72095282320830895E82FF0E066
:100B90003297808190E002C0959587956A95E2F73B
:100BA000817008958F929F92AF92BF92CF92DF9201
:100BB000EF92FF92CF939A01AB01682F70E080E033
:100BC00090E00E94DA0B69017A0180E1C81AD1082D
:100BD000E108F108C701B6012EEF31E040E050E036
:100BE0000E94DA0BCA01B9010E94380928E132E7F4
:100BF00041EB5FE30E94E8094B015C0120E030E03B
:100C0000A9010E9490088823D4F1C0E012C06C2F83
:100C100070E080E090E00E9436099B01AC01C501C4
:100C2000B4010E94900818161CF0C1B981E004C0FC
:100C3000CF5FC53060F380E0813019F56C2F70E034
:100C400080E090E00E9436099B01AC0160E070E01A
:100C500080E890E40E94550A9B01AC010E942408A0
:100C60004B015C01C701B6010E943809A50194013E
:100C70000E9495080E94070960B981E003C080E0E6
:100C800001C080E0CF91FF90EF90DF90CF90BF90B8
:100C9000AF909F908F90089596B7906296BF96B749
:100CA000946096BF96B7906896BF06B607FEFDCFD4
:100CB00091B1987F983091F483B986B7846086BFEC
:100CC00086B7806886BF06B607FEFDCF81B1887FF4
:100CD000883131F0803231F482E0089580E0089567
:100CE00081E0089583E0089583B986B7846086BF64
:100CF00086B7806886BF06B607FEFDCF81B1887FC4
:100D0000883221F0803321F481E0089580E0089555
:100D100082E0089596B7946096BF96B7906896BFA4
:100D200096B7906296BF06B607FEFDCF91B1987F49
:100D3000903191F483B986B7846086BF86B78068A6
:100D400086BF06B607FEFDCF81B1887F803431F0C3
:100D5000883431F482E0089580E0089581E00895B8
:100D600083E0089586B7846086BF86B7806886BFB3
:100D700086B7806486BF06B607FEFDCF83B10895AF
:100D800086B7846086BF86B7806886BF06B607FED2
:100D9000FDCF83B10895DC01862F6623E1F0E09159
:100DA0009600F091970090916A0096FF09C0962FE7
:100DB00024912C933196915011969111F9CF07C03F
:100DC000962F21912C93915011969111FACFF09377
:100DD0009700E093960008950F931F93CF93DC0143
:100DE000C62F8A01FA01808184FF05C0918188E8BD
:100DF0008927818303C08AE5FA018083A8014E5FB9
:100E00005F4F9C2FFA012C912083915011963196BF
:100E10009111F9CF6C2FCA010E94E400CC5FF80158
:100E2000C083CF911F910F91089547E850E00E9431
:100E3000EC060895CF93DF938091980083500AF4D5
:100E4000B7C0909195002CE030E0291B3109E901F1
:100E5000C456DF4F909194009D3209F0A7C08830AE
:100E600009F0A4C083EC80937C008AE5809367003E
:100E700010926A008881807621F0CE010E94EA04F7
:100E80008CC09A81109285008981811106C01092D0
:100E9000860025E830E082E07CC0853031F4909314
:100EA000990025E830E080E074C0863009F051C038
:100EB0008B81813041F48CE291E090939700809394
:100EC000960082E142C0823041F48AE091E0909342
:100ED00097008093960082E238C08330F9F48A81CB
:100EE000811108C08CE591E0909397008093960063
:100EF00084E02BC0813041F48AE491E09093970024
:100F00008093960082E121C08230E1F48EE391E08B
:100F100090939700809396008CE017C0813241F443
:100F20008CE191E0909397008093960089E00DC04A
:100F3000823251F486ED90E0909397008093960072
:100F400084E303C080E001C080E090E490936A00F5
:100F500024C0883099F0893031F490939B0025E8C3
:100F600030E080E016C08A3069F08B3079F48BE491
:100F70008093880025E830E080E00BC02BE930E06A
:100F800081E007C025E830E081E003C025E830E0DB
:100F900080E030939700209396009F81911104C0C8
:100FA0009E81981708F4892F80936600109298000C
:100FB0008091670084FF2BC0809166008F3F39F1DC
:100FC000893010F4682F01C068E0861B80936600AA
:100FD000ECE7F0E0908188E8892780838DE790E056
:100FE0000E94CB06C82F893060F4682F8DE790E00F
:100FF0000E94E400CC5FCC3040F48FEF8093660019
:1010000004C08FEF80936600CEE1C093670094E147
:1010100004C080B3847139F491509111FACF1092C9
:10102000990010929300DF91CF91089585B7826067
:1010300085BF8BB780648BBFE7E8F0E08BE48183EA
:101040008AE5808308955058BB27AA270E943B0851
:101050000C94AE090E94A00938F00E94A70920F064
:1010600039F49F3F19F426F40C949D090EF4E09591
:10107000E7FB0C949709E92F0E94BF0958F3BA17B0
:10108000620773078407950720F079F4A6F50C949E
:10109000E1090EF4E0950B2EBA2FA02D0B01B9013A
:1010A00090010C01CA01A0011124FF27591B99F0DE
:1010B000593F50F4503E68F11A16F040A22F232FEA
:1010C000342F4427585FF3CF469537952795A7953A
:1010D000F0405395C9F77EF41F16BA0B620B730BE1
:1010E000840BBAF09150A1F0FF0FBB1F661F771F52
:1010F000881FC2F70EC0BA0F621F731F841F48F407
:10110000879577956795B795F7959E3F08F0B0CF8F
:101110009395880F08F09927EE0F97958795089576
:101120000E94730908F481E008950E94A9080C94B4
:10113000AE090E94A70958F00E94A00940F029F4C6
:101140005F3F29F00C94970951110C94E2090C941B
:101150009D090E94BF0968F39923B1F3552391F3C8
:10116000951B550BBB27AA2762177307840738F016
:101170009F5F5F4F220F331F441FAA1FA9F335D073
:101180000E2E3AF0E0E832D091505040E695001C27
:10119000CAF72BD0FE2F29D0660F771F881FBB1FE1
:1011A000261737074807AB07B0E809F0BB0B802DBF
:1011B000BF01FF2793585F4F3AF09E3F510578F0EB
:1011C0000C9497090C94E2095F3FE4F3983ED4F342
:1011D000869577956795B795F7959F5FC9F7880FBF
:1011E000911D9695879597F90895E1E0660F771F11
:1011F000881FBB1F621773078407BA0720F0621BA2
:10120000730B840BBA0BEE1F88F7E09508950E94CC
:10121000C70988F09F5798F0B92F9927B751B0F0B8
:10122000E1F0660F771F881F991F1AF0BA95C9F76A
:1012300014C0B13091F00E94E109B1E008950C941E
:10124000E109672F782F8827B85F39F0B93FCCF3D1
:10125000869577956795B395D9F73EF490958095E7
:10126000709561957F4F8F4F9F4F0895E89409C007
:1012700097FB3EF490958095709561957F4F8F4FC9
:101280009F4F9923A9F0F92F96E9BB279395F695DF
:10129000879577956795B795F111F8CFFAF4BB0F5D
:1012A00011F460FF1BC06F5F7F4F8F4F9F4F16C0C1
:1012B000882311F096E911C0772321F09EE8872F4B
:1012C000762F05C0662371F096E8862F70E060E007
:1012D0002AF09A95660F771F881FDAF7880F969580
:1012E000879597F90895990F0008550FAA0BE0E824
:1012F000FEEF16161706E807F907C0F012161306D8
:10130000E407F50798F0621B730B840B950B39F417
:101310000A2661F0232B242B252B21F408950A267D
:1013200009F4A140A6958FEF811D811D089597F9BD
:101330009F6780E870E060E008959FEF80EC08957B
:1013400000240A94161617061806090608950024A4
:101350000A9412161306140605060895092E03941E
:10136000000C11F4882352F0BB0F40F4BF2B11F492
:1013700060FF04C06F5F7F4F8F4F9F4F089557FDF1
:101380009058440F551F59F05F3F71F04795880FF3
:1013900097FB991F61F09F3F79F08795089512168A
:1013A00013061406551FF2CF4695F1DF08C0161636
:1013B00017061806991FF1CF8695710561050894E7
:1013C0000895E894BB2766277727CB0197F90895FE
:1013D0000E94FB090C94AE090E94A00938F00E94FB
:1013E000A70920F0952311F00C9497090C949D09FE
:1013F00011240C94E2090E94BF0970F3959FC1F378
:10140000950F50E0551F629FF001729FBB27F00DB2
:10141000B11D639FAA27F00DB11DAA1F649F662707
:10142000B00DA11D661F829F2227B00DA11D621F56
:10143000739FB00DA11D621F839FA00D611D221F10
:10144000749F3327A00D611D231F849F600D211DF4
:10145000822F762F6A2F11249F5750409AF0F1F077
:1014600088234AF0EE0FFF1FBB1F661F771F881FE0
:1014700091505040A9F79E3F510580F00C94970978
:101480000C94E2095F3FE4F3983ED4F38695779598
:101490006795B795F795E7959F5FC1F7FE2B880F86
:1014A000911D9695879597F90895FA01EE0FFF1F04
:1014B000309621053105A1F16115710561F480387F
:1014C000BFE39B0749F168949038810561F080384B
:1014D000BFEF9B0741F099234AF5FF3FE105310536
:1014E000210519F1E8940894E795D901AA2329F474
:1014F000AB2FBE2FF85FD0F310C0FF5F70F4A6953E
:10150000E0F7F73950F019F0FF3A38F49F779F93DE
:101510000DD00F9007FC9058089546F00C949D094B
:1015200060E070E080E89FE308954FE79F775F9366
:101530004F933F932F930E94500B2F913F914F91C8
:101540005F910E94E8090C94AD0A29F416F00C94FE
:1015500097090C94E1090C949D090E94C709A8F30E
:101560009638A0F707F80F92E8942BE33AEA48EB95
:101570005FE70E94FE090F920F920F924DB75EB780
:101580000F920E94980BE4E5F0E00E94DF0A4F9171
:101590005F91EF91FF91E595EE1FFF1F49F0FE5718
:1015A000E0684427EE0F441FFA95E1F74195550B8B
:1015B0000E94120B0F9007FE0C94060B0895DF9308
:1015C000CF931F930F93FF92EF92DF927B018C01D9
:1015D000689406C0DA2EEF010E94FB09FE01E89430
:1015E000A5912591359145915591A6F3EF010E9462
:1015F0003B08FE019701A801DA9469F7DF90EF90AC
:10160000FF900F911F91CF91DF9108959B01AC0145
:1016100060E070E080E89FE30C9495080C949709D3
:101620000C94CC0B0E94C709D8F39923C9F3940FEB
:10163000511DA3F39150504094F059F0882332F09B
:10164000660F771F881F91505040C1F79E3F51058C
:101650002CF7880F911D9695879597F908955F3F10
:10166000ACF0983E9CF0BB27869577956795B7952B
:1016700008F4B1609395C1F7BB0F58F711F460FF00
:10168000E8CF6F5F7F4F8F4F9F4FE3CF0C94E209FE
:1016900016F00C94CC0B0C949D0968940C9497094B
:1016A0000E94C709A8F39923C1F3AEF3DF93CF9348
:1016B0001F930F93FF92C92FDD2788232AF02197CC
:1016C000660F771F881FDAF720E030E040E85FEB15
:1016D0009FE3883920F0803E38F021968F770E9472
:1016E0002408ECE7F0E004C00E942408E9EAF0E0F6
:1016F0000E94DF0A8B01BE01EC01FB2E6F577109BE
:101700007595771F880B990B0E94380928E132E7FD
:1017100041E35FE30E94FB09AF2D9801AE01FF900A
:101720000F911F91CF91DF910E943B080C94AE095D
:10173000FA01DC01AA0FBB1F9B01AC01BF5728F4C3
:10174000222733274427507820C0B75190F4AB2F7D
:101750000024469537952795011CA395D2F30020C8
:1017600071F0220F331F441FB395DAF30ED00C949F
:10177000230861307105A0E88A07B94630F49B015F
:10178000AC016627772788279078309621F0208350
:1017900031834283538308959F3F31F0915020F469
:1017A000879577956795B795880F911D969587953D
:1017B00097F90895052E97FB1EF400940E94F10BF3
:1017C00057FD07D00E94510C07FC03D04EF40C9437
:1017D000F10B50954095309521953F4F4F4F5F4FFE
:1017E000089590958095709561957F4F8F4F9F4F8D
:1017F0000895A29FB001B39FC001A39F700D811DEA
:101800001124911DB29F700D811D1124911D089509
:10181000E894DF93CF93FC01DB010E94F90B7F93E7
:101820006F93E9019A01AC01BF93AF933F932F935C
:10183000DF010E94F90B26F46C1B7D0B820B930BCE
:101840009E01EB01FC010E94730CAF91BF912F919F
:101850003F910E94730CBE01CF01F9012F913F917E
:10186000CF91DF91089597FB10F8169400080F931D
:10187000083098F00850232F342F452F562F672F0C
:10188000782F892F902DF4CF05949795879577958C
:10189000679557954795379527950A95AAF70F911C
:1018A0000895A1E21A2EAA1BBB1BFD010DC0AA1FA1
:1018B000BB1FEE1FFF1FA217B307E407F50720F0B9
:1018C000A21BB30BE40BF50B661F771F881F991F34
:1018D0001A9469F760957095809590959B01AC017D
:1018E000BD01CF0108950E94F90B460F571FC81F75
:0C18F000D91F08F431960895F894FFCF3A
:0818FC00E8033500C001FF5AAA
:00000001FF
