:100000000C94B7000C94EF000C94D4000C94D40022
:100010000C94D4000C94D4000C94D4000C94D40010
:100020000C94D4000C94D4000C94D4000C94D40000
:100030000C94D4000C94D4000C94D4000C94D400F0
:100040000C94D4000C94D4000C94D4000C94D400E0
:100050000C94D40038023B02320235023E024102C7
:10006000440207634236B79BD8A71A39685618AEC0
:10007000BAAB558C1D3CB7CC5763BD6DEDFD753EDD
:10008000F6177231BF000000803F08000000BE92EA
:100090002449123EABAAAA2ABECDCCCC4C3E0000CD
:1000A0000080BEABAAAAAA3E00000000BF0000006C
:1000B000803F0000000000084178D3BB4387D11384
:1000C0003D190E3CC3BD4282AD2B3E68EC8276BE2C
:1000D000D98FE1A93E4C80EFFFBE01C4FF7F3F00F6
:1000E0000000000005010902A1010901A1000509A4
:1000F0001901290315002501950375018102950158
:100100007505810305010930093109381581257FFD
:10011000750895038106C0C0090222000101008014
:100120000A09040000010300000009210101000187
:100130002234000705810308006412011001000049
:100140000008C016E8030001010200010C034D0085
:100150006F0075007300650012036F006200640099
:10016000650076002E006100740004030904112468
:100170001FBECFE5D8E0DEBFCDBF10E0A0E6B0E007
:10018000E6EAFAE102C005900D92AA36B107D9F766
:1001900020E0AAE6B0E001C01D92A63BB207E1F75D
:1001A0000E9426060C94510D0C940000A82FB92F24
:1001B00080E090E041E050EA609530E009C02D9188
:1001C00082279795879510F084279527305EC8F38E
:1001D0006F5FA8F30895EADF8D939D930895CF9301
:1001E000CFB7CF93C395849BE9F7849B09C0849BC9
:1001F00007C0849B05C0849B03C0849B01C0A3C02F
:10020000DF93C0919900DD27C056DF4F849B02C069
:10021000DF91EBCF2F930F931F9300B32FEF04FBCE
:1002200020F94F933F9310B34FEF012704FB21F9BF
:100230003BE031C04E7F012F10B3216028C0102F4A
:100240004D7F2260000000B329C04B7F2460012F46
:10025000000010B32BC010B3477F28602AC04F7E28
:1002600000B320612CC04F7D10B320622FC04F7BA4
:1002700000B3206432C0422700B349934FEF00001F
:10028000102714FB20F910B31471C9F1297F91F2E2
:10029000012704FB21F900B3237F89F2315058F183
:1002A000102714FB22F910B3277E79F2012704FBF3
:1002B00023F92F7C81F200B3102714FB24F92F7946
:1002C00071F200C010B3012704FB25F92F7359F216
:1002D00000C000B3102714FB26F9223040F200C002
:1002E00010B3012704FB27F9243028F64F77206844
:1002F00010B30000F9CF10E41ABF002719C03B501B
:100300003195C31BD04010E41ABF0881033CF9F0BB
:100310000B34E9F0209197001981110F1213EDCFE2
:100320004A81441F093641F10D3211F0013E29F78F
:1003300000939E003F914F911F910F912F91DF915C
:10034000CAB7C6FD4FCFCF91CFBFCF91189520919F
:100350009E00222379F310919C00112369F534301B
:100360006AF130939C0020939800109199003BE033
:10037000311B3093990022C000919C000130E4F4BD
:100380000AE54F7049F43091680034FD19C00093BC
:100390006800C0E8D0E018C030918B0034FD10C078
:1003A00000938B00CCE8D0E00FC02795A8F4515003
:1003B000A9F4220F0000F9CF4AE503C042ED01C0C5
:1003C000432FC4E1D0E032E011B31461949A11BB21
:1003D00002B320E414E15F93012756E002BB2795A6
:1003E00020F4515021F4220FF9CF012756E00000EC
:1003F0003B5A02BBD0F2279528F4515029F4220F22
:100400000000F9CF012756E0279502BB20F4515098
:1004100021F4220FF9CF012756E02991332302BBA3
:1004200021F60B7E10919D00110FC651D04002BBEA
:1004300011F01093970010E41ABF006111B31B7EF6
:10044000402F4B7E5F9100C000C002BB11BB42BB7E
:1004500071CF90E087309105F8F4FC01E65DFF4F25
:100460000C94C80C0E94050608950E940906089580
:100470000E940D0608950E94110608950E94190613
:1004800008950E94150608950E94190681E090E0E3
:100490000E9448050E94190608958091600090917D
:1004A00061000E942206813051F48BB361E00E940A
:1004B00080058BB360E00E94830581E008958BB3D3
:1004C00061E00E9483058BB360E00E94800580E0BC
:1004D0000895CF930E944D02813071F480ED97E032
:1004E0000E9448050E944D02C82F813039F480E7F0
:1004F00090E00E94A20403C0C0E001C0C0E08C2FC5
:10050000CF9108958BB360E00E947C058BB360E0CF
:100510000E9480058BB361E00E947C050E94EE047E
:100520000E94E80580916000909161000E941D0684
:100530000E9469028130E1F70895853B910514F02E
:1005400088569140653B710514F068567140453BF3
:10055000510514F0485651409C01992324F4222758
:100560003327281B390BCB01992324F4882799279B
:10057000861B970BBA01552324F466277727641B43
:10058000750B821793072CF4621773073CF481E014
:1005900008956817790724F482E0089583E00895A8
:1005A00083E00895CF93DF9300D000D000D0CDB783
:1005B000DEB78AE690E00E94A20480916A009091E2
:1005C0006B002091700030917100821B930B9A8315
:1005D0008983992324F488599E4F9A838983809133
:1005E0006C0090916D002091720030917300821B1D
:1005F000930B9C838B83992324F488599E4F9C836F
:100600008B8380916E0090916F00209174003091E7
:100610007500821B930B9E838D83992324F4885944
:100620009E4F9E838D834D815E816B817C8189810C
:100630009A810E949D02E82FF0E03197EE0FFF1F94
:1006400021E030E02C0F3D1FE20FF31F20813181AC
:100650002B3531056CF42C343105A4F523333105E9
:1006600054F52432310504F5243131058CF115C0DF
:10067000263391E039074CF42D3191E03907DCF451
:100680002E3091E03907F4F423C0253491E0390786
:100690005CF0253591E03907DCF441E050E05093FF
:1006A00077004093760014C043E050E05093770009
:1006B000409376000DC045E050E0509377004093A2
:1006C000760006C047E050E05093770040937600F4
:1006D000245131092134314008F088E08230A1F002
:1006E00020F4813009F480C0A9C0833009F453C0DC
:1006F000883009F0A3C081E0809364008093630098
:10070000809362008FEFA3C0E82FF0E03197EE0FE7
:10071000FF1F21E030E02C0F3D1FE20FF31F80810F
:1007200091819C0124513109203A310568F42091CE
:100730006400222349F01092640081E080936300FA
:100740008093620085E083C09C012D5231402732A6
:10075000310568F420916300222349F081E0809301
:100760006400109263008093620084E070C0855B37
:1007700091098737910508F063C080916200882352
:1007800009F460C0109262001092630081E08093CF
:10079000640086E05CC0E82FF0E03197EE0FFF1FA9
:1007A00081E090E08C0F9D1FE80FF91F80819181FF
:1007B0009C0124513109203A310548F481E08093AD
:1007C0006400809363008093620080E040C0855B9A
:1007D00091098F399105C0F581E080936400809381
:1007E00063008093620033C0E82FF0E03197EE0F92
:1007F000FF1F21E030E02C0F3D1FE20FF31F80812F
:1008000091819C0124513109203A310548F481E05D
:1008100080936400809363008093620083E017C03C
:10082000855B91098F39910588F481E0809364009C
:10083000809363008093620082E009C08FEF07C05D
:100840008FEF05C08FEF03C08FEF01C08FEF2696AB
:100850000FB6F894DEBF0FBECDBFDF91CF910895E4
:100860001F93CF93DF93C82F162FD42F0E941B07FF
:10087000812F0E9443078D2F0E9443078C2F0E94D7
:100880005907DF91CF911F910895CF93DF93C82F20
:10089000D62F0E941B078D2F0E9443078C2F0E948A
:1008A00059070E948107DF91CF910895EF92FF923F
:1008B0000F931F93CF93DF93C82F162FD42F790157
:1008C0000E941B07812F0E9443078C2F0E9459070B
:1008D000C0E008C087010C0F111D0E948107F801BC
:1008E0008083CF5FCD17B0F3C7018D0F911DEC0151
:1008F0000E948F078883DF91CF911F910F91FF9006
:10090000EF900895CF93C82F65E388E20E944504D5
:10091000C11105C0829586958695837011C0C1303E
:1009200021F4807382958F700BC0C23021F48C70DB
:100930008695869505C0C33011F4837001C080E0B0
:10094000CF9108950F931F93CF93DF9300D000D0E2
:1009500000D0CDB7DEB78C019E012F5F3F4F46E040
:100960006AE188E20E9456048A8190E0982F8827E5
:100970002981822BF801918380838C8190E0982FCC
:1009800088272B81822B938382838E8190E0982FFE
:1009900088272D81822B9583848326960FB6F89421
:1009A000DEBF0FBECDBFDF91CF911F910F91089594
:1009B00066E388E20E94450480FF08C081FF08C00A
:1009C00082FF08C083FD08C088E0089585E008958F
:1009D00086E0089587E0089589E00895CF9340EA7E
:1009E00056E861E070E084E00E94A10640E06DE31B
:1009F00088E20E94300441E067E088E20E9430040F
:100A000048E068E088E20E94300443E26AE088E25D
:100A10000E94300440E06BE088E20E9430044BE02A
:100A200069E088E20E94300440E067E088E20E94CA
:100A3000300441E060E488E20E94300441E06BE36E
:100A400088E20E94300440E06EE388E20E943004B5
:100A50004CE06DE388E20E9430040E94D804C82F65
:100A6000893021F00E94D804C82F0FC080E00E9476
:100A700082048230D8F381E00E9482048230B0F395
:100A800083E00E948204823088F38C2FCF910895F6
:100A90008F929F92AF92BF92CF92DF92EF92FF928E
:100AA0000F939C01A8EEB3E00E94CE0C2BEA3AEA29
:100AB0004AEA5AEA0E94DD0C00E20E940A0D822EE8
:100AC000932EA42EB52EB694A7949794879405C020
:100AD00081E0881A9108A108B10881149104A10449
:100AE000B104B1F70F91FF90EF90DF90CF90BF90DE
:100AF000AF909F908F90089541E00E943B0608952B
:100B00000E947A0608950E94870608954091780011
:100B100050917900141615061CF420E230E002C052
:100B200020EE3FEF240F351F022E232F000C221F33
:100B3000330B000C221F331F20937D008091650032
:100B400090916600820F911D9093660080936500DE
:100B5000181619061CF420E230E002C020EE3FEF28
:100B6000820F931F082E892F000C881F990B000CF1
:100B7000881F991F80937E00481B5109509379006C
:100B8000409378000895FC01908190769032E1F4D2
:100B90008181813041F48CE790E090939B008093B9
:100BA0009A0084E00895823041F48BE790E09093BE
:100BB0009B0080939A0081E008958A3039F4838104
:100BC00080937B0080E0089580E0089580E00895A0
:100BD0009EE088E10FB6F894A89581BD0FBE91BD47
:100BE0000E94E50881B3806181BB80E007C0A895C1
:100BF000E7EBFBE03197F1F700C000008150B9F757
:100C000081B38F7E81BB789408958FEF80937D00B0
:100C1000089581E080937D0008958FEF80937E009A
:100C2000089581E080937E00089581E080937C00A8
:100C3000089582E080937C00089540E0692F0E942F
:100C40003B060895692F0E94950608950E9482022E
:100C5000A8950E94E90780918B0084FF07C00E943D
:100C6000860564E08CE790E00E94E4070E94D202CF
:100C70000E942902EDCF413069F4E82FF0E0229183
:100C800081E090E002C0880F991F6A95E2F7822BFD
:100C900080830895411116C0E82FF0E0DF012E9106
:100CA00081E090E002C0880F991F6A95E2F7982FC3
:100CB000909592239C9390B7946090BF9081892BDC
:100CC000808308954230A9F4E82FF0E0DF012E91EF
:100CD00081E090E002C0880F991F6A95E2F7982F93
:100CE000909592239C9390B79B7F90BF9081892B86
:100CF00080830895E82FF0E0808121E030E002C099
:100D0000220F331F6A95E2F7282B20830895E82FDE
:100D1000F0E0808121E030E002C0220F331F6A95AD
:100D2000E2F72095282320830895E82FF0E03297FA
:100D3000808190E002C0959587956A95E2F7817071
:100D400008958F929F92AF92BF92CF92DF92EF92CF
:100D5000FF92CF939A01AB01682F70E080E090E0A2
:100D60000E94A90C69017A0180E1C81AD108E10842
:100D7000F108C701B6012EEF31E040E050E00E94DB
:100D8000A90CCA01B9010E94070A28E132E741EB28
:100D90005FE30E94B70A4B015C0120E030E0A9014B
:100DA0000E945F098823D4F1C0E012C06C2F70E06C
:100DB00080E090E00E94050A9B01AC01C501B401EE
:100DC0000E945F0918161CF0C1B981E004C0CF5F12
:100DD000C53060F380E0813019F56C2F70E080E061
:100DE00090E00E94050A9B01AC0160E070E080E8A1
:100DF00090E40E94240B9B01AC010E94F3084B017C
:100E00005C01C701B6010E94070AA50194010E9476
:100E100064090E94D60960B981E003C080E001C086
:100E200080E0CF91FF90EF90DF90CF90BF90AF9098
:100E30009F908F90089596B7906296BF96B79460F2
:100E400096BF96B7906896BF06B607FEFDCF91B1E4
:100E5000987F983091F483B986B7846086BF86B74F
:100E6000806886BF06B607FEFDCF81B1887F8831D6
:100E700031F0803231F482E0089580E0089581E01D
:100E8000089583E0089583B986B7846086BF86B7E6
:100E9000806886BF06B607FEFDCF81B1887F8832A5
:100EA00021F0803321F481E0089580E0089582E00C
:100EB000089596B7946096BF96B7906896BF96B718
:100EC000906296BF06B607FEFDCF91B1987F903134
:100ED00091F483B986B7846086BF86B7806886BF81
:100EE00006B607FEFDCF81B1887F803431F08834AB
:100EF00031F482E0089580E0089581E0089583E070
:100F0000089586B7846086BF86B7806886BF86B737
:100F1000806486BF06B607FEFDCF83B1089586B70D
:100F2000846086BF86B7806886BF06B607FEFDCFA1
:100F300083B10895DC01862F6623E1F0E0919A00E9
:100F4000F0919B0090917A0096FF09C0962F249112
:100F50002C933196915011969111F9CF07C0962F8D
:100F600021912C93915011969111FACFF0939B00FF
:100F7000E0939A0008950F931F93CF93DC01C62F3F
:100F80008A01FA01808184FF05C0918188E8892760
:100F9000818303C08AE5FA018083A8014E5F5F4F19
:100FA0009C2FFA012C91208391501196319691112A
:100FB000F9CF6C2FCA010E94EB00CC5FF801C0830F
:100FC000CF911F910F9108954BE850E00E94BB070D
:100FD0000895CF93DF9380919C0083500AF4B7C0AB
:100FE000909199002CE030E0291B3109E901C056AD
:100FF000DF4F909198009D3209F0A7C0883009F02A
:10100000A4C083EC809380008AE5809368001092EE
:101010007A008881807621F0CE010E94C3058CC0C1
:101020009A81109289008981811106C010928A00EC
:1010300029E830E082E07CC0853031F490939D0057
:1010400029E830E080E074C0863009F051C08B811F
:10105000813041F48AE391E090939B0080939A0061
:1010600082E142C0823041F488E191E090939B009C
:1010700080939A0082E238C08330F9F48A8181112A
:1010800008C08AE691E090939B0080939A0084E0E8
:101090002BC0813041F488E591E090939B008093D0
:1010A0009A0082E121C08230E1F48CE491E09093D7
:1010B0009B0080939A008CE017C0813241F48AE251
:1010C00091E090939B0080939A0089E00DC082325A
:1010D00051F484EE90E090939B0080939A0084E317
:1010E00003C080E001C080E090E490937A0024C0C7
:1010F000883099F0893031F490939F0029E830E0EE
:1011000080E016C08A3069F08B3079F48BE48093EC
:101110008C0029E830E080E00BC02FE930E081E06E
:1011200007C029E830E081E003C029E830E080E032
:1011300030939B0020939A009F81911104C09E815F
:10114000981708F4892F8093670010929C00809173
:10115000680084FF2BC0809167008F3F39F1893090
:1011600010F4682F01C068E0861B80936700E0E8F8
:10117000F0E0908188E88927808381E890E00E94F0
:101180009A07C82F893060F4682F81E890E00E94A8
:10119000EB00CC5FCC3040F48FEF8093670004C04D
:1011A0008FEF80936700CEE1C093680094E104C0A4
:1011B00080B3847139F491509111FACF10929D004F
:1011C00010929700DF91CF91089585B7826085BF17
:1011D0008BB780648BBFEBE8F0E08BE481838AE51A
:1011E000808308955058BB27AA270E940A090C94AF
:1011F0007D0A0E946F0A38F00E94760A20F039F4C6
:101200009F3F19F426F40C946C0A0EF4E095E7FB6A
:101210000C94660AE92F0E948E0A58F3BA176207E7
:1012200073078407950720F079F4A6F50C94B00AAB
:101230000EF4E0950B2EBA2FA02D0B01B9019001F1
:101240000C01CA01A0011124FF27591B99F0593F35
:1012500050F4503E68F11A16F040A22F232F342F7D
:101260004427585FF3CF469537952795A795F040CB
:101270005395C9F77EF41F16BA0B620B730B840BE0
:10128000BAF09150A1F0FF0FBB1F661F771F881F98
:10129000C2F70EC0BA0F621F731F841F48F48795F0
:1012A00077956795B795F7959E3F08F0B0CF9395E2
:1012B000880F08F09927EE0F9795879508950E945B
:1012C000420A08F481E008950E9478090C947D0A8E
:1012D0000E94760A58F00E946F0A40F029F45F3F9E
:1012E00029F00C94660A51110C94B10A0C946C0A02
:1012F0000E948E0A68F39923B1F3552391F3951B4D
:10130000550BBB27AA2762177307840738F09F5F26
:101310005F4F220F331F441FAA1FA9F335D00E2E93
:101320003AF0E0E832D091505040E695001CCAF700
:101330002BD0FE2F29D0660F771F881FBB1F2617C3
:1013400037074807AB07B0E809F0BB0B802DBF019A
:10135000FF2793585F4F3AF09E3F510578F00C9469
:10136000660A0C94B10A5F3FE4F3983ED4F3869585
:1013700077956795B795F7959F5FC9F7880F911D8A
:101380009695879597F90895E1E0660F771F881F76
:10139000BB1F621773078407BA0720F0621B730B29
:1013A000840BBA0BEE1F88F7E09508950E94960A09
:1013B00088F09F5798F0B92F9927B751B0F0E1F016
:1013C000660F771F881F991F1AF0BA95C9F714C0C6
:1013D000B13091F00E94B00AB1E008950C94B00AC7
:1013E000672F782F8827B85F39F0B93FCCF38695FF
:1013F00077956795B395D9F73EF49095809570955C
:1014000061957F4F8F4F9F4F0895E89409C097FBD8
:101410003EF490958095709561957F4F8F4F9F4FCB
:101420009923A9F0F92F96E9BB279395F69587950F
:1014300077956795B795F111F8CFFAF4BB0F11F4D2
:1014400060FF1BC06F5F7F4F8F4F9F4F16C0882379
:1014500011F096E911C0772321F09EE8872F762FAF
:1014600005C0662371F096E8862F70E060E02AF0F0
:101470009A95660F771F881FDAF7880F96958795DC
:1014800097F90895990F0008550FAA0BE0E8FEEFB1
:1014900016161706E807F907C0F012161306E40738
:1014A000F50798F0621B730B840B950B39F40A2631
:1014B00061F0232B242B252B21F408950A2609F40F
:1014C000A140A6958FEF811D811D089597F99F6713
:1014D00080E870E060E008959FEF80EC08950024BC
:1014E0000A941616170618060906089500240A9489
:1014F00012161306140605060895092E0394000C0F
:1015000011F4882352F0BB0F40F4BF2B11F460FF9D
:1015100004C06F5F7F4F8F4F9F4F089557FD9058C6
:10152000440F551F59F05F3F71F04795880F97FBA7
:10153000991F61F09F3F79F0879508951216130661
:101540001406551FF2CF4695F1DF08C01616170690
:101550001806991FF1CF86957105610508940895C5
:10156000E894BB2766277727CB0197F908950E9457
:10157000CA0A0C947D0A0E946F0A38F00E94760A0B
:1015800020F0952311F00C94660A0C946C0A112437
:101590000C94B10A0E948E0A70F3959FC1F3950FC7
:1015A00050E0551F629FF001729FBB27F00DB11DE7
:1015B000639FAA27F00DB11DAA1F649F6627B00D77
:1015C000A11D661F829F2227B00DA11D621F739F60
:1015D000B00DA11D621F839FA00D611D221F749F6E
:1015E0003327A00D611D231F849F600D211D822FB5
:1015F000762F6A2F11249F5750409AF0F1F08823DC
:101600004AF0EE0FFF1FBB1F661F771F881F915008
:101610005040A9F79E3F510580F00C94660A0C9447
:10162000B10A5F3FE4F3983ED4F3869577956795CA
:10163000B795F795E7959F5FC1F7FE2B880F911D32
:101640009695879597F90895FA01EE0FFF1F30964A
:1016500021053105A1F16115710561F48038BFE301
:101660009B0749F168949038810561F08038BFEF9D
:101670009B0741F099234AF5FF3FE105310521051C
:1016800019F1E8940894E795D901AA2329F4AB2F1E
:10169000BE2FF85FD0F310C0FF5F70F4A695E0F79F
:1016A000F73950F019F0FF3A38F49F779F930DD037
:1016B0000F9007FC9058089546F00C946C0A60E077
:1016C00070E080E89FE308954FE79F775F934F9323
:1016D0003F932F930E941F0C2F913F914F915F9149
:1016E0000E94B70A0C947C0B29F416F00C94660A3D
:1016F0000C94B00A0C946C0A0E94960AA8F39638CF
:10170000A0F707F80F92E8942BE33AEA48EB5FE77B
:101710000E94CD0A0F920F920F924DB75EB70F92B3
:101720000E94670CE2E6F0E00E94AE0B4F915F91E1
:10173000EF91FF91E595EE1FFF1F49F0FE57E0681E
:101740004427EE0F441FFA95E1F74195550B0E948F
:10175000E10B0F9007FE0C94D50B0895DF93CF9308
:101760001F930F93FF92EF92DF927B018C0168949D
:1017700006C0DA2EEF010E94CA0AFE01E894A59184
:101780002591359145915591A6F3EF010E940A09E3
:10179000FE019701A801DA9469F7DF90EF90FF90BE
:1017A0000F911F91CF91DF9108959B01AC0160E0F3
:1017B00070E080E89FE30C9464090C94660A0C9432
:1017C0009B0C0E94960AD8F39923C9F3940F511DDC
:1017D000A3F39150504094F059F0882332F0660FF3
:1017E000771F881F91505040C1F79E3F51052CF73D
:1017F000880F911D9695879597F908955F3FACF0F6
:10180000983E9CF0BB27869577956795B79508F429
:10181000B1609395C1F7BB0F58F711F460FFE8CFA3
:101820006F5F7F4F8F4F9F4FE3CF0C94B10A16F03D
:101830000C949B0C0C946C0A68940C94660A0E949D
:10184000960AA8F39923C1F3AEF3DF93CF931F93C6
:101850000F93FF92C92FDD2788232AF02197660F67
:10186000771F881FDAF720E030E040E85FEB9FE366
:10187000883920F0803E38F021968F770E94F30857
:10188000EAE8F0E004C00E94F308E7EBF0E00E9411
:10189000AE0B8B01BE01EC01FB2E6F5771097595E4
:1018A000771F880B990B0E94070A28E132E741E372
:1018B0005FE30E94CA0AAF2D9801AE01FF900F911D
:1018C0001F91CF91DF910E940A090C947D0AFA01C1
:1018D000DC01AA0FBB1F9B01AC01BF5728F42227D4
:1018E00033274427507820C0B75190F4AB2F002401
:1018F000469537952795011CA395D2F3002071F0EA
:10190000220F331F441FB395DAF30ED00C94F20864
:1019100061307105A0E88A07B94630F49B01AC013B
:101920006627772788279078309621F020833183A7
:101930004283538308959F3F31F0915020F487955F
:1019400077956795B795880F911D9695879597F927
:101950000895052E97FB1EF400940E94C00C57FDBD
:1019600007D00E94260D07FC03D04EF40C94C00C47
:1019700050954095309521953F4F4F4F5F4F0895BB
:1019800090958095709561957F4F8F4F9F4F0895EB
:10199000EE0FFF1F0590F491E02D0994A29FB00176
:1019A000B39FC001A39F700D811D1124911DB29F93
:1019B000700D811D1124911D0895E894DF93CF933C
:1019C000FC01DB010E94CE0C7F936F93E9019A0129
:1019D000AC01BF93AF933F932F93DF010E94CE0CD6
:1019E00026F46C1B7D0B820B930B9E01EB01FC011B
:1019F0000E94480DAF91BF912F913F910E94480DD9
:101A0000BE01CF01F9012F913F91CF91DF91089550
:101A100097FB10F8169400080F93083098F00850C0
:101A2000232F342F452F562F672F782F892F902D56
:101A3000F4CF059497958795779567955795479532
:101A4000379527950A95AAF70F910895A1E21A2EC6
:101A5000AA1BBB1BFD010DC0AA1FBB1FEE1FFF1F52
:101A6000A217B307E407F50720F0A21BB30BE40BA2
:101A7000F50B661F771F881F991F1A9469F76095E9
:101A80007095809590959B01AC01BD01CF010895A3
:101A90000E94CE0C460F571FC81FD91F08F431965D
:061AA0000895F894FFCF49
:0A1AA6003500010101C001FF5A00E4
:00000001FF
