S01B00004D6F757365466F7248616E64696361707065642E7372656388
S11300000C94B7000C94EF000C94D4000C94D4001E
S11300100C94D4000C94D4000C94D4000C94D4000C
S11300200C94D4000C94D4000C94D4000C94D400FC
S11300300C94D4000C94D4000C94D4000C94D400EC
S11300400C94D4000C94D4000C94D4000C94D400DC
S11300500C94D4004F02520249024C025502580239
S11300605B0207634236B79BD8A71A39685618AEA5
S1130070BAAB558C1D3CB7CC5763BD6DEDFD753ED9
S1130080F6177231BF000000803F08000000BE92E6
S11300902449123EABAAAA2ABECDCCCC4C3E0000C9
S11300A00080BEABAAAAAA3E00000000BF00000068
S11300B0803F0000000000084178D3BB4387D11380
S11300C03D190E3CC3BD4282AD2B3E68EC8276BE28
S11300D0D98FE1A93E4C80EFFFBE01C4FF7F3F00F2
S11300E00000000005010902A1010901A1000509A0
S11300F01901290315002501950375018102950154
S11301007505810305010930093109381581257FF9
S1130110750895038106C0C0090222000101008010
S11301200A09040000010300000009210101000183
S11301302234000705810308006412011001000045
S11301400008C016E8030001010200010C034D0081
S11301506F0075007300650012036F006200640095
S1130160650076002E006100740004030904112464
S11301701FBECFE5D8E0DEBFCDBF10E0A0E6B0E003
S1130180E8E3F9E102C005900D92AA36B107D9F768
S113019020E0AAE6B0E001C01D92A43BB207E1F75B
S11301A00E9465050C949A0C0C940000A82FB92F9A
S11301B080E090E041E050EA609530E009C02D9184
S11301C082279795879510F084279527305EC8F38A
S11301D06F5FA8F30895EADF8D939D930895CF93FD
S11301E0CFB7CF93C395849BE9F7849B09C0849BC5
S11301F007C0849B05C0849B03C0849B01C0A3C02B
S1130200DF93C0919700DD27C256DF4F849B02C065
S1130210DF91EBCF2F930F931F9300B32FEF04FBCA
S113022020F94F933F9310B34FEF012704FB21F9BB
S11302303BE031C04E7F012F10B3216028C0102F46
S11302404D7F2260000000B329C04B7F2460012F42
S1130250000010B32BC010B3477F28602AC04F7E24
S113026000B320612CC04F7D10B320622FC04F7BA0
S113027000B3206432C0422700B349934FEF00001B
S1130280102714FB20F910B31471C9F1297F91F2DE
S1130290012704FB21F900B3237F89F2315058F17F
S11302A0102714FB22F910B3277E79F2012704FBEF
S11302B023F92F7C81F200B3102714FB24F92F7942
S11302C071F200C010B3012704FB25F92F7359F212
S11302D000C000B3102714FB26F9223040F200C0FE
S11302E010B3012704FB27F9243028F64F77206840
S11302F010B30000F9CF10E41ABF002719C03B5017
S11303003195C31BD04010E41ABF0881033CF9F0B7
S11303100B34E9F0209195001981110F1213EDCFE0
S11303204A81441F093641F10D3211F0013E29F78B
S113033000939C003F914F911F910F912F91DF915A
S1130340CAB7C6FD4FCFCF91CFBFCF91189520919B
S11303509C00222379F310919A00112369F534301B
S11303606AF130939A0020939600109197003BE035
S1130370311B3093970022C000919A000130E4F4BD
S11303800AE54F7049F43091690034FD19C00093B7
S11303906900CEE7D0E018C03091890034FD10C068
S11303A000938900CAE8D0E00FC02795A8F4515003
S11303B0A9F4220F0000F9CF4AE503C042ED01C0C1
S11303C0432FC4E1D0E032E011B31461949A11BB1D
S11303D002B320E414E15F93012756E002BB2795A2
S11303E020F4515021F4220FF9CF012756E00000E8
S11303F03B5A02BBD0F2279528F4515029F4220F1E
S11304000000F9CF012756E0279502BB20F4515094
S113041021F4220FF9CF012756E02991332302BB9F
S113042021F60B7E10919B00110FC651D04002BBE8
S113043011F01093950010E41ABF006111B31B7EF4
S1130440402F4B7E5F9100C000C002BB11BB42BB7A
S113045071CF8BB360E00E94BB048BB360E00E9459
S1130460BF048BB361E00E94BB040E942D040E9470
S1130470270580916400909165000E945C050895B1
S113048090E087309105F8F4FC01E65DFF4F0C9491
S1130490110C0E94440508950E94480508950E9485
S11304A04C0508950E94500508950E94580508952A
S11304B00E94540508950E94540581E090E00E9432
S11304C087040E945405089580916400909165000A
S11304D00E946105813051F48BB361E00E94BF0436
S11304E08BB360E00E94C20481E008958BB361E0A5
S11304F00E94C2048BB360E00E94BF0480E00895B0
S113050083E790E00E94E10308959C01992324F479
S113051022273327281B390BCB01992324F488275E
S11305209927861B970BBA01552324F4662777274E
S1130530641B750B821793072CF4621773073CF442
S113054081E008956817790724F482E0089583E030
S1130550089583E00895CF93DF9300D000D000D0B6
S1130560CDB7DEB780916000909161000E9487044E
S11305708DE690E00E94E103ADE6B0E08D919C91A0
S11305801197E3E7F0E020813181821B930B9A837A
S1130590898312966D917C91139722813381621B1A
S11305A0730B7C836B8314964D915C911597248116
S11305B03581421B530B5E834D830E948502482F75
S11305C050E0FA013197EE0FFF1F21E030E02C0FCD
S11305D03D1FE20FF31F208131812A303105ACF039
S11305E02531310524F02432310544F00EC068EE83
S11305F073E070936100609360000BC060E971E088
S1130600709361006093600004C0109261001092C6
S11306106000823031F0833049F1813009F04BC001
S113062037C02A303105A4F080916300882381F01B
S113063010926300440F551FE1E0F0E0EC0FFD1F42
S1130640E40FF51F808191814997BCF585E03EC098
S11306503195219531092A3031058CF18091620060
S1130660882379F11092620084E030C02A30310589
S11306702CF081E08093630080E028C031952195BF
S113068031092A303105FCF081E0809363001EC0FB
S11306902A3031052CF081E08093630083E016C09A
S11306A03195219531092A3031057CF081E0809320
S11306B0630082E00BC08FEF09C086E007C08FEFB4
S11306C005C08FEF03C08FEF01C08FEF26960FB6E2
S11306D0F894DEBF0FBECDBFDF91CF9108951F9375
S11306E0CF93DF93C82F162FD42F0E946406812F37
S11306F00E948C068D2F0E948C068C2F0E94A206CD
S1130700DF91CF911F910895CF93DF93C82FD62FF8
S11307100E9464068D2F0E948C068C2F0E94A206D4
S11307200E94CA06DF91CF910895EF92FF920F9332
S11307301F93CF93DF93C82F162FD42F79010E94D4
S11307406406812F0E948C068C2F0E94A206C0E0B2
S113075008C087010C0F111D0E94CA06F80180838E
S1130760CF5FCD17B0F3C7018D0F911DEC010E942F
S1130770D8068883DF91CF911F910F91FF90EF905E
S11307800895CF93C82F65E388E20E948403C111C2
S113079005C0829586958695837011C0C13021F479
S11307A0807382958F700BC0C23021F48C70869553
S11307B0869505C0C33011F4837001C080E0CF91E9
S11307C008950F931F93CF93DF9300D000D000D0F0
S11307D0CDB7DEB78C019E012F5F3F4F46E06AE143
S11307E088E20E9495038A8190E0982F88272981C6
S11307F0822BF801918380838C8190E0982F882745
S11308002B81822B938382838E8190E0982F88277B
S11308102D81822B9583848326960FB6F894DEBFB0
S11308200FBECDBFDF91CF911F910F91089566E365
S113083088E20E94840380FF08C081FF08C082FF11
S113084008C083FD08C088E0089585E0089586E027
S1130850089587E0089589E00895CF9340EA56E823
S113086061E070E084E00E94EA0540E06DE388E224
S11308700E946F0341E067E088E20E946F0348E052
S113088068E088E20E946F0343E26AE088E20E9423
S11308906F0340E06BE088E20E946F034BE069E085
S11308A088E20E946F0340E067E088E20E946F03E1
S11308B041E060E488E20E946F0341E06BE388E278
S11308C00E946F0340E06EE388E20E946F034CE0F5
S11308D06DE388E20E946F030E941704C82F8930D9
S11308E021F00E941704C82F0FC080E00E94C103AA
S11308F08230D8F381E00E94C1038230B0F383E0F8
S11309000E94C103823088F38C2FCF9108958F9277
S11309109F92AF92BF92CF92DF92EF92FF920F938A
S11309209C01A8EEB3E00E94170C2BEA3AEA4AEACB
S11309305AEA0E94260C00E20E94530C822E932E47
S1130940A42EB52EB694A7949794879405C081E0FD
S1130950881A9108A108B10881149104A104B10472
S1130960B1F70F91FF90EF90DF90CF90BF90AF90D1
S11309709F908F90089541E00E94840508950E94FD
S1130980C30508950E94D005089540916A005091CE
S11309906B00141615061CF420E230E002C020EEB1
S11309A03FEF240F351F022E232F000C221F330B81
S11309B0000C221F331F20937B00809166009091CE
S11309C06700820F911D909367008093660018164C
S11309D019061CF420E230E002C020EE3FEF820F43
S11309E0931F082E892F000C881F990B000C881F59
S11309F0991F80937C00481B510950936B004093CE
S1130A006A000895FC01908190769032E1F481812E
S1130A10813041F48AE790E09093990080939800A4
S1130A2084E00895823041F489E790E0909399003E
S1130A308093980081E008958A3039F4838180930B
S1130A40790080E0089580E0089580E008959EE0B4
S1130A5088E10FB6F894A89581BD0FBE91BD0E94A0
S1130A602E0881B3806181BB80E007C0A895E7EBC5
S1130A70FBE03197F1F700C000008150B9F781B372
S1130A808F7E81BB789408958FEF80937B000895C7
S1130A9081E080937B0008958FEF80937C0008951C
S1130AA081E080937C00089581E080937A0008952A
S1130AB082E080937A00089540E0692F0E948405C3
S1130AC00895692F0E94DE0508950E942902C1E05D
S1130AD0A8950E9432078091890084FF07C00E9474
S1130AE0C50464E08AE790E00E942D070E94640236
S1130AF0813071F7C13019F40E948002C0E00E9475
S1130B00AB020E944002E4CF413069F4E82FF0E0E8
S1130B10229181E090E002C0880F991F6A95E2F764
S1130B20822B80830895411116C0E82FF0E0DF0185
S1130B302E9181E090E002C0880F991F6A95E2F738
S1130B40982F909592239C9390B7946090BF908136
S1130B50892B808308954230A9F4E82FF0E0DF0167
S1130B602E9181E090E002C0880F991F6A95E2F708
S1130B70982F909592239C9390B79B7F90BF9081E0
S1130B80892B80830895E82FF0E0808121E030E014
S1130B9002C0220F331F6A95E2F7282B20830895A1
S1130BA0E82FF0E0808121E030E002C0220F331F03
S1130BB06A95E2F72095282320830895E82FF0E032
S1130BC03297808190E002C0959587956A95E2F707
S1130BD0817008958F929F92AF92BF92CF92DF92CD
S1130BE0EF92FF92CF939A01AB01682F70E080E0FF
S1130BF090E00E94F20B69017A0180E1C81AD108E1
S1130C00E108F108C701B6012EEF31E040E050E001
S1130C100E94F20BCA01B9010E94500928E132E78F
S1130C2041EB5FE30E94000A4B015C0120E030E0ED
S1130C30A9010E94A8088823D4F1C0E012C06C2F37
S1130C4070E080E090E00E944E099B01AC01C50178
S1130C50B4010E94A80818161CF0C1B981E004C0B0
S1130C60CF5FC53060F380E0813019F56C2F70E000
S1130C7080E090E00E944E099B01AC0160E070E0CE
S1130C8080E890E40E946D0A9B01AC010E943C083C
S1130C904B015C01C701B6010E945009A5019401F2
S1130CA00E94AD080E941F0960B981E003C080E082
S1130CB001C080E0CF91FF90EF90DF90CF90BF9084
S1130CC0AF909F908F90089596B7906296BF96B715
S1130CD0946096BF96B7906896BF06B607FEFDCFA0
S1130CE091B1987F983091F483B986B7846086BFB8
S1130CF086B7806886BF06B607FEFDCF81B1887FC0
S1130D00883131F0803231F482E0089580E0089532
S1130D1081E0089583E0089583B986B7846086BF2F
S1130D2086B7806886BF06B607FEFDCF81B1887F8F
S1130D30883221F0803321F481E0089580E0089521
S1130D4082E0089596B7946096BF96B7906896BF70
S1130D5096B7906296BF06B607FEFDCF91B1987F15
S1130D60903191F483B986B7846086BF86B7806872
S1130D7086BF06B607FEFDCF81B1887F803431F08F
S1130D80883431F482E0089580E0089581E0089584
S1130D9083E0089586B7846086BF86B7806886BF7F
S1130DA086B7806486BF06B607FEFDCF83B108957B
S1130DB086B7846086BF86B7806886BF06B607FE9E
S1130DC0FDCF83B10895DC01862F6623E1F0E09125
S1130DD09800F091990090916C0096FF09C0962FAD
S1130DE024912C933196915011969111F9CF07C00B
S1130DF0962F21912C93915011969111FACFF09343
S1130E009900E093980008950F931F93CF93DC010A
S1130E10C62F8A01FA01808184FF05C0918188E888
S1130E208927818303C08AE5FA018083A8014E5F84
S1130E305F4F9C2FFA012C9120839150119631968B
S1130E409111F9CF6C2FCA010E94EB00CC5FF8011D
S1130E50C083CF911F910F91089549E850E00E94FB
S1130E6004070895CF93DF9380919A0083500AF486
S1130E70B7C0909197002CE030E0291B3109E901BB
S1130E80C256DF4F909196009D3209F0A7C088307A
S1130E9009F0A4C083EC80937E008AE58093690006
S1130EA010926C008881807621F0CE010E940205A8
S1130EB08CC09A81109287008981811106C010929A
S1130EC0880027E830E082E07CC0853031F49093DC
S1130ED09B0027E830E080E074C0863009F051C000
S1130EE08B81813041F48AE391E09093990080935F
S1130EF0980082E142C0823041F488E191E090930D
S1130F0099008093980082E238C08330F9F48A8192
S1130F10811108C08AE691E090939900809398002B
S1130F2084E02BC0813041F488E591E090939900EE
S1130F308093980082E121C08230E1F48CE491E056
S1130F4090939900809398008CE017C0813241F40B
S1130F508AE291E0909399008093980089E00DC013
S1130F60823251F484EE90E090939900809398003B
S1130F7084E303C080E001C080E090E490936C00BF
S1130F8024C0883099F0893031F490939D0027E88B
S1130F9030E080E016C08A3069F08B3079F48BE45D
S1130FA080938A0027E830E080E00BC02DE930E030
S1130FB081E007C027E830E081E003C027E830E0A3
S1130FC080E030939900209398009F81911104C090
S1130FD09E81981708F4892F8093680010929A00D4
S1130FE08091690084FF2BC0809168008F3F39F1A4
S1130FF0893010F4682F01C068E0861B8093680074
S1131000EEE7F0E0908188E8892780838FE790E01D
S11310100E94E306C82F893060F4682F8FE790E0C0
S11310200E94EB00CC5FCC3040F48FEF80936800DB
S113103004C08FEF80936800CEE1C093690094E10F
S113104004C080B3847139F491509111FACF109295
S11310509B0010929500DF91CF91089585B782602F
S113106085BF8BB780648BBFE9E8F0E08BE48183B4
S11310708AE5808308955058BB27AA270E94530805
S11310800C94C6090E94B80938F00E94BF0920F0E8
S113109039F49F3F19F426F40C94B5090EF4E09545
S11310A0E7FB0C94AF09E92F0E94D70958F3BA174C
S11310B0620773078407950720F079F4A6F50C946A
S11310C0F9090EF4E0950B2EBA2FA02D0B01B901EE
S11310D090010C01CA01A0011124FF27591B99F0AA
S11310E0593F50F4503E68F11A16F040A22F232FB6
S11310F0342F4427585FF3CF469537952795A79506
S1131100F0405395C9F77EF41F16BA0B620B730BAC
S1131110840BBAF09150A1F0FF0FBB1F661F771F1D
S1131120881FC2F70EC0BA0F621F731F841F48F4D2
S1131130879577956795B795F7959E3F08F0B0CF5B
S11311409395880F08F09927EE0F97958795089542
S11311500E948B0908F481E008950E94C1080C9450
S1131160C6090E94BF0958F00E94B80940F029F44A
S11311705F3F29F00C94AF0951110C94FA090C94B7
S1131180B5090E94D70968F39923B1F3552391F364
S1131190951B550BBB27AA2762177307840738F0E2
S11311A09F5F5F4F220F331F441FAA1FA9F335D03F
S11311B00E2E3AF0E0E832D091505040E695001CF3
S11311C0CAF72BD0FE2F29D0660F771F881FBB1FAD
S11311D0261737074807AB07B0E809F0BB0B802D8B
S11311E0BF01FF2793585F4F3AF09E3F510578F0B7
S11311F00C94AF090C94FA095F3FE4F3983ED4F3DE
S1131200869577956795B795F7959F5FC9F7880F8A
S1131210911D9695879597F90895E1E0660F771FDC
S1131220881FBB1F621773078407BA0720F0621B6D
S1131230730B840BBA0BEE1F88F7E09508950E9498
S1131240DF0988F09F5798F0B92F9927B751B0F06C
S1131250E1F0660F771F881F991F1AF0BA95C9F736
S113126014C0B13091F00E94F909B1E008950C94D2
S1131270F909672F782F8827B85F39F0B93FCCF385
S1131280869577956795B395D9F73EF490958095B3
S1131290709561957F4F8F4F9F4F0895E89409C0D3
S11312A097FB3EF490958095709561957F4F8F4F95
S11312B09F4F9923A9F0F92F96E9BB279395F695AB
S11312C0879577956795B795F111F8CFFAF4BB0F29
S11312D011F460FF1BC06F5F7F4F8F4F9F4F16C08D
S11312E0882311F096E911C0772321F09EE8872F17
S11312F0762F05C0662371F096E8862F70E060E0D3
S11313002AF09A95660F771F881FDAF7880F96954B
S1131310879597F90895990F0008550FAA0BE0E8EF
S1131320FEEF16161706E807F907C0F012161306A3
S1131330E407F50798F0621B730B840B950B39F4E3
S11313400A2661F0232B242B252B21F408950A2649
S113135009F4A140A6958FEF811D811D089597F989
S11313609F6780E870E060E008959FEF80EC089547
S113137000240A9416161706180609060895002470
S11313800A9412161306140605060895092E0394EA
S1131390000C11F4882352F0BB0F40F4BF2B11F45E
S11313A060FF04C06F5F7F4F8F4F9F4F089557FDBD
S11313B09058440F551F59F05F3F71F04795880FBF
S11313C097FB991F61F09F3F79F087950895121656
S11313D013061406551FF2CF4695F1DF08C0161602
S11313E017061806991FF1CF8695710561050894B3
S11313F00895E894BB2766277727CB0197F90895CA
S11314000E94130A0C94C6090E94B80938F00E947D
S1131410BF0920F0952311F00C94AF090C94B50981
S113142011240C94FA090E94D70970F3959FC1F313
S1131430950F50E0551F629FF001729FBB27F00D7E
S1131440B11D639FAA27F00DB11DAA1F649F6627D3
S1131450B00DA11D661F829F2227B00DA11D621F22
S1131460739FB00DA11D621F839FA00D611D221FDC
S1131470749F3327A00D611D231F849F600D211DC0
S1131480822F762F6A2F11249F5750409AF0F1F043
S113149088234AF0EE0FFF1FBB1F661F771F881FAC
S11314A091505040A9F79E3F510580F00C94AF092C
S11314B00C94FA095F3FE4F3983ED4F3869577954C
S11314C06795B795F795E7959F5FC1F7FE2B880F52
S11314D0911D9695879597F90895FA01EE0FFF1FD0
S11314E0309621053105A1F16115710561F480384B
S11314F0BFE39B0749F168949038810561F0803817
S1131500BFEF9B0741F099234AF5FF3FE105310501
S1131510210519F1E8940894E795D901AA2329F43F
S1131520AB2FBE2FF85FD0F310C0FF5F70F4A69509
S1131530E0F7F73950F019F0FF3A38F49F779F93AA
S11315400DD00F9007FC9058089546F00C94B509FF
S113155060E070E080E89FE308954FE79F775F9332
S11315604F933F932F930E94680B2F913F914F917C
S11315705F910E94000A0C94C50A29F416F00C9499
S1131580AF090C94F9090C94B5090E94DF09A8F37A
S11315909638A0F707F80F92E8942BE33AEA48EB61
S11315A05FE70E94160A0F920F920F924DB75EB733
S11315B00F920E94B00BE2E6F0E00E94F70A4F910E
S11315C05F91EF91FF91E595EE1FFF1F49F0FE57E4
S11315D0E0684427EE0F441FFA95E1F74195550B57
S11315E00E942A0B0F9007FE0C941E0B0895DF93A4
S11315F0CF931F930F93FF92EF92DF927B018C01A5
S1131600689406C0DA2EEF010E94130AFE01E894E2
S1131610A5912591359145915591A6F3EF010E942D
S11316205308FE019701A801DA9469F7DF90EF905F
S1131630FF900F911F91CF91DF9108959B01AC0111
S113164060E070E080E89FE30C94AD080C94AF096F
S11316500C94E40B0E94DF09D8F39923C9F3940F87
S1131660511DA3F39150504094F059F0882332F067
S1131670660F771F881F91505040C1F79E3F510558
S11316802CF7880F911D9695879597F908955F3FDC
S1131690ACF0983E9CF0BB27869577956795B795F7
S11316A008F4B1609395C1F7BB0F58F711F460FFCC
S11316B0E8CF6F5F7F4F8F4F9F4FE3CF0C94FA09B2
S11316C016F00C94E40B0C94B50968940C94AF09CF
S11316D00E94DF09A8F39923C1F3AEF3DF93CF93FC
S11316E01F930F93FF92C92FDD2788232AF0219798
S11316F0660F771F881FDAF720E030E040E85FEBE1
S11317009FE3883920F0803E38F021968F770E943D
S11317103C08EAE8F0E004C00E943C08E7EBF0E093
S11317200E94F70A8B01BE01EC01FB2E6F57710971
S11317307595771F880B990B0E94500928E132E7B1
S113174041E35FE30E94130AAF2D9801AE01FF90BD
S11317500F911F91CF91DF910E9453080C94C609F9
S1131760FA01DC01AA0FBB1F9B01AC01BF5728F48F
S1131770222733274427507820C0B75190F4AB2F49
S11317800024469537952795011CA395D2F3002094
S113179071F0220F331F441FB395DAF30ED00C946B
S11317A03B0861307105A0E88A07B94630F49B0113
S11317B0AC016627772788279078309621F020831C
S11317C031834283538308959F3F31F0915020F435
S11317D0879577956795B795880F911D9695879509
S11317E097F90895052E97FB1EF400940E94090CA6
S11317F057FD07D00E946F0C07FC03D04EF40C94E5
S1131800090C50954095309521953F4F4F4F5F4FB0
S1131810089590958095709561957F4F8F4F9F4F58
S11318200895EE0FFF1F0590F491E02D0994A29FF7
S1131830B001B39FC001A39F700D811D1124911DA0
S1131840B29F700D811D1124911D0895E894DF93BA
S1131850CF93FC01DB010E94170C7F936F93E90186
S11318609A01AC01BF93AF933F932F93DF010E9482
S1131870170C26F46C1B7D0B820B930B9E01EB0162
S1131880FC010E94910CAF91BF912F913F910E9456
S1131890910CBE01CF01F9012F913F91CF91DF91BE
S11318A0089597FB10F8169400080F93083098F0E9
S11318B00850232F342F452F562F672F782F892F29
S11318C0902DF4CF059497958795779567955795BF
S11318D04795379527950A95AAF70F910895A1E2A0
S11318E01A2EAA1BBB1BFD010DC0AA1FBB1FEE1F96
S11318F0FF1FA217B307E407F50720F0A21BB30BE1
S1131900E40BF50B661F771F881F991F1A9469F75C
S113191060957095809590959B01AC01BD01CF01B8
S113192008950E94170C460F571FC81FD91F08F4AB
S10B193031960895F894FFCFED
S10D1938E80301013500C001FF5A65
S9030000FC
